:10000000000200204504000021040000D503000088
:1000100000000000000000000000000000000000E0
:10002000000000000000000000000000A903000024
:10003000000000000000000081030000A900000093
:10004000A90000009117000039100000A90000006D
:10005000A900000000000000A9000000A9000000A5
:10006000FD0D0000A9000000A9000000A90000008B
:10007000A9000000A9000000A9000000A9000000DC
:10008000A9000000A9000000A9000000A9000000CC
:10009000A9000000A9000000A9000000A9000000BC
:1000A000A9000000A900000010B500F0C1F910BDC2
:1000B00080220F21014BD205D1507047240500004A
:1000C00010B500F097FA10BD7047000070B50C0035
:1000D000060000F073FA094B094A1D682C19944276
:1000E00002D8084A944207D20C23012533606D429E
:1000F00000F06CFA280070BD1C60F9E700020020D7
:10010000004000200411002010B51900100000F07C
:100110007FFA10BD10B51900100000F083FA10BD71
:100120001323036001204042704713230360012022
:100130004042704713230360012040427047002370
:10014000022203608A425B41180070470020124B74
:1001500010B51860114B12491B680A685C421C40BC
:10016000104B6343104CDB0EE35C104C9B001B599F
:100170001B68083B93420ED0824204D010790A28B3
:1001800001D1013010710A221A710622985E084AC4
:100190000B601080012010BD940200208802002016
:1001A0009002002031B57C07242F00009C02002023
:1001B0008C02002030B5037909291AD9092B14D8EB
:1001C00042791A4B92009B1802001C680832002CDE
:1001D0000DD0246884601C6822601A600123447971
:1001E000134AA340146823431360017130BD826039
:1001F000F3E7092BF9D943790C4D9B00EB181A68EA
:10020000002A04D01468A2420DD100221A60447959
:10021000A300EB58002BE8D10133A340044A146833
:100220009C432300E0E723681360F0E79C02002072
:100230008802002010B5094B1B681A79092A02D9D7
:100240005B79834206D900F0C4F9002803D001226B
:10025000034B1A6010BD00F089F8FBE79002002004
:100260009402002070B5002400F0A8F9084B094A58
:100270001B88094D1BB29B009C50084A2100136843
:100280002868013B1360FFF795FF2C6000F06AF8C7
:100290008C020020DC020020900200209802002046
:1002A000D318032293431F4A10B51C1F2260620714
:1002B00003D0083B1C001C4B23608022231F5204E8
:1002C0001A601A4A043B1860043B1A600022043B7F
:1002D0001A60043B03321A60043B013A1A60043B83
:1002E000013A1A60043B19600632043B1A60043B71
:1002F000013A1A60043B013A1A60043B013A1A6061
:10030000043B07321A60043B013A1A60043B013A8D
:100310001A60043B013A1A602000032344385B4210
:10032000036010BD7777777788888888650200003A
:100330000548064A064B0168914201D1984201D313
:10034000181A70470430F6E700000020FEE7FEE7C9
:1003500000020020EFF3088070470000004870475B
:100360000000002000F02EF901DFFEE78023034AA1
:100370005B0551680B4353607047C04600ED00E0D9
:10038000EFF30980EC4685464046494652465B46B7
:10039000FFB4704601B46846E54602490968086042
:1003A00000F002F890020020FFF7D0FEEE46084869
:1003B00000680068854601BC8446FFBC80468946CB
:1003C00092469B46684680F30988F54660470000E0
:1003D000900200200F4B104A10496846904203D803
:1003E000984201D9002102E0091C8D460121042018
:1003F0007246024202D1EFF3088001E0EFF3098078
:10040000F0B443464C4655465E4678B46B4600F021
:1004100049F8C0465801002000400020000200209A
:1004200010B50249042000F065FBC046DD30000035
:1004300010B50249062000F05DFBC046442F0000C5
:100440007047000010B5FFF733FE6A460E4B0F49A8
:100450009A4212D80E4B0F4A0F498B420FD30021FC
:100460000E4B0F4A93420DD3FFF7EAFF00F000FB5B
:1004700001F0F4FD00F010FB10BD02C3E8E701CA73
:1004800001C3EAE702C3EDE700000020FEE7FEE754
:1004900000020020A0360000880200208802002010
:1004A00004110020F0B58DB00A92364A0B93126801
:1004B000354B040003919A4202D0344801F04EFFBC
:1004C000039B002B37D00025314801F047FF2E0059
:1004D000304801F043FF0A992F4801F09FFE039B2B
:1004E000002B23D12D4801F039FF31002C4801F0B9
:1004F00095FE6946234BC91A2A4BC91803D54942B0
:10050000294801F08BFE0B9B1E00201C8268C368EB
:1005100001698C4641698E46AD46311CF0C9A04642
:10052000A946B246BB46F0C94168006801BE1F49F2
:10053000052000F0DFFA25002368E769049363686B
:10054000A6690593A36824350693E3680793236996
:10055000089363690993BB0500D4043D144801F076
:10056000FDFE079B059A00930499069B114801F034
:1005700055FE00973300099A08990F4801F04EFE86
:10058000A6E7C04600000020FEE7FEE7522F00006D
:10059000682F00002D300000323000004430000091
:1005A00075300000A8FEFFFF9D300000CA3000003B
:1005B000972F0000B22F0000EF2F0000EFF3108004
:1005C00072B6704762B6EFF31080704780F3108800
:1005D0007047EFF30580C0B2704700008023002110
:1005E000034ADB059950243A01319950FEE7C04691
:1005F00024050000E12110B5034B044A4902002004
:1006000000F02EFC10BDC04604020020E50C0000E6
:1006100010B50A000100024800F06FFB10BDC04693
:100620000402002010B50C000A000100002000F0B8
:10063000EBFC200010BD10B5002000F0CFFB10BD7A
:1006400070B5044C2568FFF7F6FF2368AB42F8D17C
:10065000184370BDA8030020054B0200186810B5B0
:10066000002804D11202120A010000F091FB10BD13
:10067000A003002010B5094A1368002B08D09C681D
:1006800081688C4207D303D159684468A14202D9DA
:100690000360106010BD1A001B68EEE7AC03002079
:1006A0008022F0B52A4D52042B689B182B602B68D2
:1006B000002B03D1274A1368013313600020264B17
:1006C00026491A681860264B224C1B680A600700EE
:1006D0001900A446002904D064468E682468A64206
:1006E0001AD9002801D01E480160002F13D0002124
:1006F00039608A4228D01100002B04D050685C6811
:10070000A04200D91900080012681B68002A0ED107
:100710000360124B1960F0BD2C6826004C68240E53
:100720002406B442DDD10F0001200968D2E7002B76
:1007300001D10260EDE755685E681400B54200D94A
:100740001C0004602000DFE7044A1360E3E7C046B2
:10075000A8030020A4030020B0030020B40300205D
:10076000AC030020174A10B513681100834211D161
:100770001B681360002B04D058681438FFF76CFF17
:1007800010BD1148FAE7984202D103680B60F7E701
:1007900019001B68002BF6D10C4A1368002B08D1F6
:1007A0000B4A1368002BEBD0984204D01A001B6848
:1007B000F8E7984202D103681360E1E71A001B686A
:1007C000ECE7C046B4030020FFFFFF00B0030020A9
:1007D000AC030020F8B50123324E334D33602B6853
:1007E000002B08D1FFF75CFFFFF725FF2F4B984246
:1007F000FAD0002402E0FFF71EFF04002B68002B54
:100800000BD1FFF718FF1430844226D9FFF748FFB9
:10081000FFF711FF8442FBD3EBE75F68FFF70BFFA5
:10082000844206D83B021B0A834202D91B1A132BAF
:10083000E7D82B685F68FFF7FEFE844203D83F02CB
:100840003F0A8742F5D82B681A6818692A60002287
:100850005A609A60DA689047D0E72B68002B0CD07A
:100860005F68FFF7EDFE143F14308742C6D30023C4
:1008700038003360FFF7F0FEF8BDFFF7DCFE07003D
:10088000844202D9FFF70CFFB3E7030014331B02C5
:100890001B0A984204D9FFF7CEFE8742FBD9F1E745
:1008A000024FE4E7A0030020B4030020FFFFFF0095
:1008B000002310B5044A0549180000F031FA012060
:1008C0004042FFF7C9FE10BDD507000040420F00AF
:1008D000F8B504000D00FFF7B3FE00230600236007
:1008E0002B1A282B0ED82D022D0AFFF7A4FE8542C5
:1008F000FBD3FFF7A0FE8542FBD8E3682069984749
:100900000020F8BDFFF75AFE63680700002B02D1F4
:10091000A368002B02D02000FFF724FF28001F4A05
:10092000143865601368864211D8A3601368A26802
:100930009A4205D81A4B1A68030E1B069A4208D031
:100940002000FFF797FE3800FFF740FED8E701339D
:10095000EBE73602360AB0420FD9124A110013688B
:10096000002B02D05E68B54214D223600C6013687D
:100970009C42E8D1FFF770FEE5E70B4A1368002BB5
:1009800002D059688D4202D223601460DBE71A005E
:100990001B68F4E719001B68E2E7C046A4030020C7
:1009A000A8030020B4030020B003002070B50400A9
:1009B000FFF704FE63680500002B02D1A368002B3B
:1009C00002D02000FFF7CEFE2800FFF7FFFD70BD2C
:1009D000C36870B504000D00002B10D0FFF7E6FFD0
:1009E000272D0DD8FFF727FE0600FFF724FE831BF7
:1009F0001B021B0A9D42F8D8E3682069984770BD26
:100A0000FFF71EFE29182000FFF762FFF7E700003E
:100A1000F7B504000D00161E02D1FFF7D9FFF7BD90
:100A2000FFF7CCFD63680090002B02D1A368002B78
:100A300002D02000FFF796FEFFF702FE0B4B0700E7
:100A40001B680193FFF7FCFD8742F5D8019B28182E
:100A50006060F318854207D82000A360FFF70AFE04
:100A60000098FFF7B3FDDAE70133F5E7A4030020B0
:100A700010B500F01DF910BD10B500F0ABFC034837
:100A800001F0CCFB00F094FC002010BDE930000028
:100A900010B500F0EFF8FCE71FB5FFF78FFD00245D
:100AA00080210D4B0F221B68490002930B4B0194D0
:100AB00000930B480C2300F069F8C021094B072272
:100AC0001B68C9000293084B0194009307480C234C
:100AD00000F05CF8FFF746FC18020020910A0000C5
:100AE000B80300201C020020790A0000B80400208E
:100AF000704700000F4B10B51A680C00002A13D184
:100B000001321A60032803D171460B4801F086FBBD
:100B100021000A4801F082FB00F0C2FA084801F007
:100B20007DFB084801F07AFBFFF748FDFFF7E0FF87
:100B3000FFF754FDB80A00202F31000033310000C8
:100B40005B3100004F31000070B50B79092B03D9E0
:100B500009490320FFF7CEFF0A004C7908320368E9
:100B6000002B02D18B60026070BD1D00083D6D79C5
:100B7000AC42F7D31800F2E71D31000003001A68F9
:100B80009A4201D0181A70470433F8E7F0B587B0DD
:100B900005000291039204930F2A31D803230A001F
:100BA000034003D0C51ACB1804351A1F13000322C3
:100BB000303B93430593EC18049B1B0717D42D601F
:100BC00003E01B600433A342FBD3FFF7F7FC0123D0
:100BD000264A0190990056581FB2002E13D00133B7
:100BE000212BF7D10198FFF7F1FC8B2709E02B00AF
:100BF000E9E72000FFF7DEFA0198FFF7E7FC32E0B3
:100C000016277F422FE08C50059B2A000D99E78024
:100C10000C98FFF745FB029B0121E3620E9B144AEF
:100C2000A362039B2060637101235B42E36113684D
:100C3000656201331360049B2671A660E66026613D
:100C40006661A66126620B42D3D10B212000FFF71B
:100C5000B1FA049B5B07CFD40198FFF7B7FC6B4652
:100C60009889FFF7E7FA380007B0F0BDDC020020F2
:100C7000980200200421064A10B513698B431361C2
:100C8000FFF79CFCBFF34F8F30BFFFF79FFC10BDF9
:100C900000ED00E0BFF34F8F034B044ADA60BFF36F
:100CA0004F8FC046FDE7C04600ED00E00400FA05A6
:100CB00010B500F0E9FB00F003F800F098FA10BD61
:100CC0008022AA23FF21D205DB00D1500021044B52
:100CD0005960013111605A68002AFCD07047C04643
:100CE000FC00004070B5040000F06EFA0500200022
:100CF000103000F0A3FB280070BD70B504000D009B
:100D0000160032002900200000F049FA002800D027
:100D100070BD20000121103000F060FBF1E7000001
:100D200030B5002823D1134C02250CC40122124BEC
:100D3000124C1A51A124E4005A601D51104C185154
:100D4000DA60104A91420ED1A222D20098500020BF
:100D500080210D4A490050649064D0640B4A1160B0
:100D600001221A6030BD013052080A28EAD1012060
:100D70004042F7E7BC0A002000800040FC0F000062
:100D8000040500000024F400FC80004000E100E0C5
:100D9000F0B5104DC600AB191B798B4216DD0C2344
:100DA00058430D4B1B18012007008F401C7A3C4311
:100DB0001C720B0051337459FF339B001A5180236E
:100DC000C1225B028B409200A350F0BD0120404243
:100DD000FBE7C04660310000BC0A00200649C000A5
:100DE0000B181A79435892009B1801221A64A82202
:100DF000D20098587047C0466031000070B5802519
:100E0000C22600246D02B600114BA200D218536C0A
:100E1000012B12D1002151640E4A117A08002041A1
:100E200018420AD0A34099432B00A34011720A49EB
:100E300050688B511368210098470134032CE3D18B
:100E4000064B1B68002B01D0FFF790FA70BDC0461F
:100E5000FC800040BC0A002000800040940200207A
:100E600070B50D001600002800D0A2E0524A534C85
:100E7000536016600122524BE250524BE050002E5C
:100E800006D00100113000F0F7F811224E4BE2506D
:100E90000321122000F0F0F812224C4BE250012303
:100EA000A1225B42D200A3500832A35096231B021A
:100EB0009D4200D16BE023D896239B019D425DD0DB
:100EC0000ED896231B019D4251D096235B019D4273
:100ED00051D09623DB009D4235D00220404245E0B0
:100EE0009623DB019D424CD0E123DB019D424BD098
:100EF000E1239B019D42F0D1EC22354B920325E08A
:100F0000E1239B029D424BD00ED896235B029D426B
:100F100040D0E1235B029D423FD0E1231B029D4272
:100F2000DBD12B4B2B4A11E0E123DB029D423AD06F
:100F3000E1231B039D4239D0274B9D42CDD1802216
:100F4000234BD20402E09E22214BD202E250A02287
:100F50000423D200A3500122301EA26006D0C1217A
:100F600000208900635022601C4A136070BD9D22DE
:100F7000174B1203EAE7164B194AE7E7144B194AD5
:100F8000E4E7134B184AE1E7114B184ADEE7104B30
:100F9000174ADBE70E4B174AD8E70D4B164AD5E741
:100FA0000B4B164AD2E70A4B154ACFE7084B154AB6
:100FB000CCE7012092E7C046C80A0020002000408C
:100FC000FC0F00006C050000140500000C0500007B
:100FD0002405000000F0EB0090D0030000E100E0E9
:100FE00000B013000050270000A04E0000F0750074
:100FF00000509D0000903A0100E0D70100B0AF031F
:1010000000705F0700D0BE0E70B500240748084B83
:10101000084D8A18914200D170BD1C620E7846516D
:101020001E6A002EFCD00131F4E7C04600200040CB
:10103000FC2000401C0500000B4B10B5DA68012AAB
:101040000AD10022DA60A323084ADB00D158084BFA
:10105000C9B21A6858689047064B1B68002B01D02C
:10106000FFF784F910BDC046FC200040002000407E
:10107000C80A0020940200200C290CD801238B40C0
:10108000064A134207D0A023C130FF308000DB05A1
:10109000C1500020704701204042FBE719100000BA
:1010A000F0B58DB002222D490BA800F0FEFF2C4AAE
:1010B0002C492D4801F0B2F8FFF73AF90400FFF788
:1010C0004DF90500FFF746F980212B000090220022
:1010D0008900264801F0A2F8E5438023ED179B0024
:1010E000234E254007937468002C26D02379E76AA5
:1010F0009A0008931F4B606AD3580993079BDB192A
:101100000793FFF73BFD0623E15E23683F1A059333
:10111000636A03970493E36A089A02936379164813
:101120000193092393429B410BAA5B42D31800937E
:10113000A26A099BED1901F071F8104B0436B34215
:10114000D1D10F49079B0295019300910B000D4AE5
:101150000D4801F063F80DB0F0BDC04668310000E5
:101160006A3100007031000075310000BD310000AF
:10117000DC02002068320000073200005C0300201F
:1011800043320000453200004932000083680168A4
:101190005A1C82604268013A1340C85C7047F8B537
:1011A00006000F0014001500002D03D0B268F3688C
:1011B0009A4201D1601BF8BD3000FFF7E7FF6A4299
:1011C0003B199854013DEFE7C36830B54268846825
:1011D0001B1B934208D0C36804685D1CC5600020D7
:1011E000013A1340E15430BD01204042FBE7704713
:1011F00010B5024801F012F810BDC04638340000A6
:10120000F7B5214C01AE236832001D692721022366
:101210002000A8476B469D1D23682A001F691921DD
:1012200002232000B84723686A461F690223200072
:101230001900B8473188154800F0F0FF6B46144894
:1012400019785A7800F0EAFF2988062917D808008B
:1012500000F05EFC04090B0D0F1113000D4800F0A7
:10126000DDFF0020FEBD0C48F9E70C48F7E70C480D
:10127000F5E70C48F3E70C48F1E70C48EFE70C48BA
:1012800000F0CCFFEDE7C046D00A0020FB320000A2
:101290000C3300001B3300002E33000043330000EA
:1012A00057330000693300007B33000090330000A7
:1012B000A73300001FB50024C021074B01940293FF
:1012C000064B06220093C90008230548FFF75EFC81
:1012D000200004B010BDC046C2330000151300004A
:1012E000DC0A00201FB50024C021074B01940293A3
:1012F000064B06220093C90008230548FFF746FC69
:10130000200004B010BDC046A834000069130000DE
:10131000DC0A002030B58FB000F07CFA0D4C2300C1
:1013200026C826C30C4800F079FF0C4B0C486360BC
:10133000272500F073FF0B4800F070FF0023019396
:1013400004AB0293236803951B6801A9200098470A
:10135000F1E7C046D00A0020D3330000F1110000AD
:10136000E3330000F833000070B50A240C4E00206F
:101370003568FFF733FD33689D42F7D109492843AB
:1013800000F0D0FB0100084800F048FF013C0021BC
:10139000064800F091FB002CE8D1200070BDC0464B
:1013A000A803002040420F00B534000080841E00D6
:1013B00000B50648A1B000F0D1FF8022694604487C
:1013C00000F03EFA002021B000BDC04646340000C7
:1013D0000834000010B5FFF76BFA10BD70B50400BB
:1013E0000D00FFF7EBF823680600002B06D1013B48
:1013F0002360FFF7EBF80125280070BD002D18D001
:101400000D4B02211D682800FEF7D4FE236801332E
:101410000AD12B00083323600023AB603000FFF7B4
:10142000D5F8FEF7A3FFE6E729002000FFF78CFBC5
:10143000F4E7FFF7CBF8DFE79002002070B5050076
:10144000FFF7BCF82C680600002C03D13000FFF732
:10145000BDF870BD631C02D100232B60F6E7236842
:10146000083C2B600B212000FEF7A4FE2B68002B0C
:1014700001D1013B2B6064793000FFF7A7F8200011
:10148000FEF7D8FEE5E70000184B19491A6AF0B5D7
:1014900011408022D2030A4380211A62DA69C90509
:1014A0001202120A0A43DA610322C025002194467F
:1014B000FF27AD0064463E000C40E400A6408A08C9
:1014C0000C489200121850590131B0434026A640F2
:1014D000304350511A29EDD1102219690A431A617B
:1014E0008022596992000A435A61F0BD00ED00E084
:1014F000FFFF00FF00E100E010B502490320FFF705
:10150000F9FAC0461D31000010B5102941D042291A
:1015100069D1002A25D0107A272803D9334903201E
:10152000FFF7E8FA324B33491A60334B1C5CA123B6
:10153000DB00CC50D478314BCC50137854781B025C
:10154000240423439478240623432D4C0B512D4B24
:10155000C85053682C4A1B021B0A8B500C231800DE
:1015600010BD2A480C23017849B20029F7DBC223B9
:10157000122420499B00CC50093BFF3BCA50244B0E
:101580005A6101220A615A69002AFCD000230370C3
:10159000E4E7022B01D0FFF7AFFF0020105E1549F2
:1015A0001C4A022802DD04208850D8E7441C01DBD5
:1015B0000020F9E7441D01DBFC20F5E704000934B5
:1015C00001DBF820F0E704000D3401DBF420EBE749
:1015D0000400113401DBF020E6E7183001DBEC20D9
:1015E000E2E7D820E0E786235B42B8E71D31000040
:1015F000DC10002000100040CA3400002405000068
:101600001C050000540500003C050000EC10002003
:10161000FC1000400C05000010B5102904D027294B
:101620000DD08620404210BD012B01D8FFF764FF8A
:101630000749084BCB585BB213800220F3E7012B1C
:1016400003D805490320FFF755FA0523F4E7C04600
:10165000001000400C0500001D31000010B50029ED
:1016600001D0272A01D0FFF747FF0B4B0B4A0C484C
:10167000995080220721920099500278D2B2002A14
:1016800008D10639017007484261C1221220920038
:1016900098505960002010BD001000400405000063
:1016A000EC100020FC10004010B5002901D1FFF71C
:1016B00023FF49680B4B0C4A995080220B21920062
:1016C00099500A490A78D2B2002A09D1022008703A
:1016D00007494A61C12212219200995001221A60E1
:1016E000002010BD0010004004050000EC10002098
:1016F000FC1000401A4B10B51A68002A02D05B6833
:10170000002B01D1FFF7F8FE164800F087FD0122FB
:101710000020154B15495A50154958501549585035
:1017200004315A50A2220321D2009950124A0631A4
:10173000FF3199501149043299509621104A99501D
:101740000421104AFF3199500F4904329950C222A6
:10175000012192004942995002220C4B1A6010BD9F
:10176000E0100020F234000000100040FC0F0000E8
:101770000C0500002C0500001405000025000302E4
:1017800044050000340500005B06000000E100E0B5
:101790001A4B10B59A68002A06D0002280201849FA
:1017A0009A600A7802430A705A69002A18D0002207
:1017B0005A61134B13481978426881291AD17F392D
:1017C000197080231049DB00CC58104B19684B6806
:1017D000002C0CD08024240623434B600221904728
:1017E0000B4B1B68002B01D0FEF7C0FD10BD5B004A
:1017F0005B08F2E7012119700331F0E7FC100040AB
:10180000EC100020E010002000100040DC10002050
:10181000940200200348044B03600023436083606C
:101820007047C046E01000200435000010B5034B9F
:101830001B68986800F0CCFA10BDC046200200205A
:10184000F0B587B000AF386179617A603E2000F072
:10185000FFFC202000F0FCFCFFF7E8FF7D697A68C0
:101860007B69013AEB1A934200DBF2E000F0E4FB03
:10187000002800DAEDE00D2801D00A281CD1002450
:101880000D202C7000F0E4FC0A2000F0E1FC7B69E4
:10189000AB42DBD02200260020007B69197820298A
:1018A0002ED9222901D0272936D15C78002C1DD1D0
:1018B000694800F053FDC9E7082801D07F2812D1FC
:1018C0007B69AB42CBD000236C1E2370082000F054
:1018D000BFFC202000F0BCFC082000F0B9FC250073
:1018E000FFF7A4FFBBE76C1C2870F6E75C2C0DD05B
:1018F00001331C788C42D8D159782029D8D80136A8
:101900001978002918D018700133C7E79C78002C8B
:10191000CED001320233ECE71D785C7819005C2DE3
:1019200003D10132002CC3D001314B1C497822294C
:10193000BED02029F0D8E2E7002E87D06B4668465B
:10194000BB60B3000B33DB08DB00C31A9D466D465A
:10195000B30059517B691878002822D0222801D081
:10196000272800D1013388002B50187800281AD17D
:101970000131B142EFD12800002A02D00368002BC8
:101980001FD12B68FB603B69002B1FD01C00206817
:1019900000281BD0F96800F037FD002821D00C3456
:1019A000F5E70133D7E70133DFE75C2908D11900F8
:1019B0004C780C700131002CFAD1013A002A03D086
:1019C000013319780029F0D10430D5E7234C002CDD
:1019D0000AD02068002807D0F96800F015FD00281B
:1019E0001ED1A368002B1DD129681D4800F00CFDF5
:1019F000002829D11B4D1C4A1C49280000F00EFC70
:101A00001B4800F0ABFC3B69002B11D01C00216887
:101A100000290DD06268280000F000FC0C34F6E7C5
:101A20000C34D6E7290030009847BB689D460DE787
:101A30000A4C002CF9D021680029F6D062682800F1
:101A400000F0ECFB0C34F6E729680A4800F0E6FBEE
:101A5000EBE7BD4607B0F0BD1C350000A035000027
:101A6000353500004E3500003A350000463500009F
:101A7000583500008035000010B5FFF70BF9002045
:101A800010BD10B5FFF70CFB002010BD10B5FFF71F
:101A9000D5FC10BD70B504000020FFF79FF90500CC
:101AA0002402240A0020FFF799F9431B1B021B0A9A
:101AB000A342F7D370BD000030B587B004000D001D
:101AC000FEF787FD00280AD0002D03D00E49032021
:101AD000FFF710F82000FFF7DDFF07B030BD0B4B1C
:101AE000009004936B460390029001216846059391
:101AF000FFF774FC210001A82A00FEF789FF0121ED
:101B00006846FFF76BFCE8E71D3100008D1A000006
:101B100002B4714649084900095C49008E4402BC80
:101B20007047C046002243088B4274D303098B429E
:101B30005FD3030A8B4244D3030B8B4228D3030C9D
:101B40008B420DD3FF22090212BA030C8B4202D33F
:101B50001212090265D0030B8B4219D300E0090A67
:101B6000C30B8B4201D3CB03C01A5241830B8B4270
:101B700001D38B03C01A5241430B8B4201D34B0359
:101B8000C01A5241030B8B4201D30B03C01A5241BE
:101B9000C30A8B4201D3CB02C01A5241830A8B4243
:101BA00001D38B02C01A5241430A8B4201D34B022C
:101BB000C01A5241030A8B4201D30B02C01A524190
:101BC000CDD2C3098B4201D3CB01C01A5241830944
:101BD0008B4201D38B01C01A524143098B4201D37E
:101BE0004B01C01A524103098B4201D30B01C01AA9
:101BF0005241C3088B4201D3CB00C01A5241830823
:101C00008B4201D38B00C01A524143088B4201D34F
:101C10004B00C01A5241411A00D2014652411046AF
:101C20007047FFE701B5002000F006F802BDC0468E
:101C30000029F7D076E770477047C046F7B58A8924
:101C400005000C00130760D44B68002B04DC0B6C00
:101C5000002B01DC0020FEBDE76A002FFAD0002334
:101C60002E682B6080235B011A4034D0606DA389FD
:101C70005B0706D56368C01A636B002B01D0236C29
:101C8000C01A0200216A00232800E76AB847A18928
:101C9000431C06D12B681D2B31D82C4ADA40D307C0
:101CA0002DD50023636023692360CB0405D5431C35
:101CB00002D12B68002B00D16065616B2E6000297A
:101CC000C8D023004433994202D0280000F0FEF926
:101CD00000206063BFE70123216A2800B847431C46
:101CE000C5D12B68002BC2D01D2B01D0162B01D1E2
:101CF0002E60AFE74023A2891343A381ABE74023C3
:101D00000B430120A3814042A5E70F69002FA1D01A
:101D10000B680F60DB1B01930023920700D14B6916
:101D2000A360019B002B00DC94E7019B3A00216A31
:101D30002800A66AB047002803DC4023A289134389
:101D4000DFE7019B3F181B1A0193EAE701004020DF
:101D50000B6970B505000C00002B02D1002528008E
:101D600070BD002804D08369002B01D100F0A6F8D3
:101D7000144B9C421BD16C680C22A35E002BEDD04F
:101D8000626ED20704D49B0502D4A06D00F08BF9DB
:101D900028002100FFF752FF636E0500DB07DED449
:101DA000A3899B05DBD4A06D00F07EF9D7E7064B35
:101DB0009C4201D1AC68DFE7044B9C42DCD1EC686B
:101DC000DAE7C04628360000483600000836000032
:101DD00010B5011E05D1054B0549186800F00AF938
:101DE00010BD044B1868FFF7B3FFF9E76836000031
:101DF000511D000020020020002310B504000360E4
:101E00004360836081814366C28103614361836172
:101E1000190008225C3000F051F9054B246263621E
:101E2000044BA362044BE362044B236310BDC04622
:101E30007123000099230000D1230000FD2300003E
:101E400010B5024900F0D6F810BDC046511D000083
:101E500070B568254A1E55430E002900743100F004
:101E60007FF9041E08D000212A00016046600C3072
:101E7000A060683200F022F9200070BD10B5024861
:101E800000F011F910BDC0460011002010B5024845
:101E900000F00AF910BDC0460011002010B502483C
:101EA00000F001F910BDC046FB10002010B502483B
:101EB00000F0FAF810BDC046FB10002013B5040076
:101EC000FFF7ECFFA369002B02D0FFF7EFFF13BD74
:101ED000A364E3642365134B134A1B68A262019356
:101EE000A34201D10123A361200000F01FF860602C
:101EF000200000F01BF8A060200000F017F800227E
:101F0000E06004216068FFF777FF01220921A068E3
:101F1000FFF772FF02221221E068FFF76DFF012335
:101F2000A361D2E768360000411E0000F8B5060044
:101F3000FFF7A4FF1F4B1D68AB69002B02D12800DF
:101F4000FFF7BCFF4835AC686B68013B04D52B68D4
:101F5000002B22D02D68F6E70C22A75E002F1AD1A5
:101F60002000154B5830E360676600F09BF8FFF7E0
:101F70008DFF20002760A760676027616761A76108
:101F8000082239005C3000F099F86763A763A76402
:101F9000E7642000F8BD6834D7E704213000FFF77C
:101FA00057FF041E2860D5D1FFF770FF0C23336064
:101FB000EFE7C046683600000100FFFFF7B5483084
:101FC000040000260191002C01D13000FEBDA5685F
:101FD0006768013F01D52468F5E7AB89012B07D974
:101FE0000E22AB5E013303D02800019B98470643C5
:101FF0006835EEE7F7B50400070000260191483484
:10200000002C01D13000FEBD6368A5680093009BE1
:10201000013B009301D52468F2E7AB89012B08D975
:102020000E22AB5E013304D029003800019B984793
:1020300006436835EBE70000074B10B51C68002C21
:1020400005D0A369002B02D12000FFF737FF61689C
:10205000200000F0AFFA10BD2002002070B500266D
:102060000C4D0D4C641BA410A64209D10026FEF7AE
:1020700027F80A4D0A4C641BA410A64205D170BD76
:10208000B300EB5898470136EEE7B300EB5898479A
:102090000136F2E7A0360000A0360000A0360000AE
:1020A000A0360000704770477047002310B59A4271
:1020B00000D110BDCC5CC4540133F8E70300121802
:1020C000934200D1704719700133F9E770B50500EC
:1020D000002910D00C1F2368002B00DAE418280018
:1020E00000F016FB1D4A1368002B05D163601460D5
:1020F000280000F015FB70BDA34209D921686018C3
:102100008342F3D118685B6841182160EEE7130041
:102110005A68002A01D0A242F9D919685818A04279
:102120000BD120680918581819608242E0D1106854
:102130005268411819605A60DAE7A04202D90C23AC
:102140002B60D5E721686018824203D1106852687D
:102150004118216062605C60CAE7C046F010002050
:10216000F8B50323CD1C9D43083506000C2D1FD266
:102170000C25A9421ED8300000F0CAFA25490A6889
:102180001400002C1AD1244F3B68002B04D12100ED
:102190003000FDF79BFF386029003000FDF796FF07
:1021A000431C2AD10C233000336000F0B9FA03E05D
:1021B000002DDEDA0C2333600020F8BD23685B1BA2
:1021C00018D40B2B03D92360E418256003E063685F
:1021D000A2420DD10B60300000F0A2FA20000722CD
:1021E0000B30231D9043C21AE7D01B1AA350E4E71B
:1021F0005360F0E722006468C3E70323C41C9C43D8
:10220000A042E2D0211A3000FDF760FF431CDCD170
:10221000C8E7C046F0100020F41000200FB40B4BAC
:1022200013B51C68002C05D0A369002B02D1200037
:10223000FFF744FE05AB049AA1682000019300F06B
:102240009FFA16BC08BC04B01847C0462002002004
:10225000084B70B51C680500002C05D0A369002B45
:1022600002D12000FFF72AFE2900A268200000F01A
:1022700035FD70BD2002002070B505000E0000285D
:1022800004D08369002B01D1FFF718FEAB69AC685D
:10229000002B02D12800FFF711FE2D4B9C4222D1CA
:1022A0006C68636EDB0705D4A3899B0502D4A06D1F
:1022B000FFF7F9FEA3891B0702D52369002B29D15B
:1022C0002100280000F000F9002823D001256D42EC
:1022D000636EDB0705D4A3899B0502D4A06DFFF7CD
:1022E000E3FE280070BD1B4B9C4201D1AC68D8E7CF
:1022F000194B9C42D5D1EC68D3E70136A360002B83
:1023000004DAA2699A4216DC0A2914D023685A1CFE
:1023100022601970A3683178013B0029EDD1A360D8
:10232000002B0FDA280022000A3100F077F80A2586
:10233000431CCDD1CAE72200280000F06FF8431CEF
:10234000E8D1C3E70A2523685A1C22601D70BFE745
:1023500028360000483600000836000010B5034B50
:1023600001001868FFF788FF10BDC046200200205A
:1023700070B50C000E25495FFDF7C6FE002803DB93
:10238000636D1B18636570BDA389024A1340A38166
:10239000F9E7C046FFEFFFFFF8B51F008B89050086
:1023A0000C001600DB0505D50E23C95E00220223B2
:1023B000FDF7BBFEA389054A28001340A381320024
:1023C0000E23E15E3B00FDF7A5FEF8BDFFEFFFFF2A
:1023D00070B50C000E25495FFDF7A7FEA389421CCE
:1023E00003D1054A1340A38170BD802252011343DB
:1023F000A3816065F8E7C046FFEFFFFF10B50E232D
:10240000C95EFDF78DFE10BD02780B78002A03D05F
:10241000013001319A42F7D0D01A7047F8B5050063
:102420000E001400002804D08369002B01D1FFF7AF
:1024300045FD224B9C422ED16C68A369A360A38901
:102440001B0732D52369002B2FD023682269F7B2EE
:10245000981A6369F6B2834205DC21002800FFF771
:1024600077FC002827D1A3680130013BA3602368D3
:102470005A1C22601F706369834204D0A389DB0762
:1024800007D50A2E05D121002800FFF761FC00289E
:1024900011D13000F8BD0A4B9C4201D1AC68CCE7A9
:1024A000084B9C42C9D1EC68C7E72100280000F026
:1024B0000BF80028C9D001267642EAE7283600004A
:1024C0004836000008360000364B70B51D6806001F
:1024D0000C00002D05D0AB69002B02D12800FFF7BE
:1024E000EDFC314B9C420FD16C680C23E25E93B241
:1024F00019072DD4D90611D40923012033603733AD
:102500001343A381404270BD284B9C4201D1AC686B
:10251000EBE7274B9C42E8D1EC68E6E75B0713D575
:10252000616B002908D023004433994202D0300067
:10253000FFF7CCFD002363632422A3899343A38187
:1025400000236360236923600823A2891343A381C6
:102550002369002B0BD1A0218022A389890092003E
:102560000B40934203D02100300000F08DF801238E
:10257000A289134011D00023A36063695B42A36169
:10258000002023698342BED10C23E25E1306BAD534
:1025900040231343A3810138B5E7920700D4636950
:1025A000A360EDE720020020283600004836000036
:1025B0000836000070B505000C00002804D08369BF
:1025C000002B01D1FFF77AFC184B9C421ED16C689E
:1025D000636EDB0705D4A3899B0502D4A06DFFF7CA
:1025E00062FD6368013B6360002B19DA280021005B
:1025F00000F0BEFB0500636EDB0705D4A3899B05D5
:1026000002D4A06DFFF750FD280070BD084B9C421E
:1026100001D1AC68DCE7074B9C42D9D1EC68D7E725
:1026200023685A1C22601D78E5E7C0462836000062
:10263000483600000836000070B50E001D000E235D
:10264000C95E96B01400002907DA00232B60B38915
:102650001B0611D48023DB000FE06A46FDF76AFDFC
:102660000028F2DBF022019B12021340054A9B185E
:102670005A4253412B60EDE740230020236016B0FF
:1026800070BDC04600E0FFFFF7B502268B8905004C
:102690000C00334206D0230047332360236101231B
:1026A0006361F7BD01AB6A46FFF7C6FF00990700FB
:1026B0002800FFF755FD002808D10C22A35E9A05DB
:1026C000EFD4032293431E43A681E4E70F4BAB6292
:1026D0008023A28920601343A381009B2061636152
:1026E000019B002B0DD00E23E15E2800FDF727FD96
:1026F000002806D00322A38993431A000123134321
:10270000A381A0893843A081CBE7C046411E0000C9
:1027100010B50248FFF7C7FC10BDC046FC100020F2
:1027200010B50248FFF7C0FC10BDC046FC100020E9
:10273000936810B5013B9360002B04DA9469A342BF
:1027400007DB0A2905D01368581C106019700800AF
:1027500010BDFFF763FE0100F9E7F8B506000F00B2
:102760001400D518AC4201D1002007E021783A00CE
:102770003000FFF7DDFF0134431CF3D1F8BD00004A
:10278000F0B5A1B007000D0003921E00002804D090
:102790008369002B01D1FFF791FB8C4B9D421CD12B
:1027A0007D686B6EDB0705D4AB899B0502D4A86DF1
:1027B000FFF779FCAB891B0702D52B69002B1DD1D4
:1027C00029003800FFF780FE002817D06B6EDB076A
:1027D0000DD50120404221B0F0BD7D4B9D4201D17D
:1027E000BD68DEE77B4B9D42DBD1FD68D9E7AB8955
:1027F0009B05EED4A86DFFF757FCEAE7002308AC71
:102800006361203363761033A3760796039E337893
:10281000002B01D0252B4BD1039BF31A05930CD031
:10282000039A29003800FFF798FF431C00D1B5E058
:102830006269059B9446634463613378002B00D141
:10284000ACE00122731C039300235242626004A98E
:10285000543252182360E360A3601370A365039B96
:10286000052219785C4800F0B3FA039B5E1C00282F
:1028700020D12268D30604D5532304A95B18202154
:102880001970130704D5532304A95B182B21197061
:10289000039B1B782A2B16D00021E368039E327815
:1028A000701C303A8446092A4FD9002911D117E00B
:1028B0000136ACE7484B2268C01A0123834013431A
:1028C00023600396CBE7079B191D1B680791002B1C
:1028D00001DB0B9304E05B42E360022313432360BC
:1028E00033782E2B0AD173782A2B37D1079B0236E7
:1028F0001A1D1B680792002B2DDB099331780322E8
:10290000364800F065FA002807D0344B2268C01A18
:10291000402383401343013623603178731C062221
:102920002F480393217600F053FA002845D02D4B11
:10293000002B27D10722079B0733934308330793C4
:102940006369049A9B18636160E70A214B436646FA
:102950009B180939A3E701235B42CEE700231A0045
:10296000013663603178701C30398446092903D9F7
:10297000002BC3D00992C1E70A235A436646521876
:10298000093BEFE707AB00932A00174B2100380003
:1029900000E000BF0490049B0133D1D16B6EDB07D4
:1029A00005D4AB899B0502D4A86DFFF77DFBAB89ED
:1029B0005B0600D50DE70D980DE707AB00932A00E5
:1029C000094B2100380000F07FF8E3E728360000CB
:1029D00048360000083600006C36000072360000F1
:1029E00076360000000000005B270000F7B51500F8
:1029F00001938A680B6900900C00934200DA13007F
:102A000022002B6043321278002A01D001332B6060
:102A100023689B0602D52B6802332B6006272368A8
:102A20001F4027D0230043331B785A1E934122684E
:102A3000920630D42200019943320098089EB04794
:102A4000431C25D0062320682A68E168034000253E
:102A5000042B03D18D1AEB43DB171D40A3682269B9
:102A6000934201DD9B1AED180027BD4220D10020C2
:102A700010E00137E3682A689B1ABB42D2DD2200CE
:102A80000123193201990098089EB047431CF0D1E8
:102A900001204042FEBD3020E11843310870210082
:102AA0005A1C45310978A218433202331170C1E72C
:102AB000220001231A3201990098089EB047431C56
:102AC000E6D00137D1E70000F0B58BB006920A00DE
:102AD00043320793059004920A7E0C00109B6E2AE5
:102AE00000D1AFE020D8632A35D008D8002A00D121
:102AF000B5E0582A51D026004236327032E0642ABE
:102B000001D0692AF7D1196820680A1D05062BD55E
:102B10000D681A60002D03DA2D23049A6D4213709C
:102B20006C4B0A27039352E0732A00D19BE008D82C
:102B30006F2A1FD0702ADED1202209680A43226042
:102B400003E0752A16D0782AD5D1220078214532A3
:102B50001170614A24E026001A684236111D19607E
:102B60001368337001238CE00D681A604106D1D5DB
:102B70002DB2CFE719682568081D18602E0601D50B
:102B80000D6803E06D06FBD50D68ADB2514B0A2709
:102B900003936F2A17D1082715E045310A704D4A73
:102BA00003921A68216820CA1A60080644D5CB0728
:102BB00002D52023194321601027002D03D12023A3
:102BC00022689A4322602300002243331A7063680C
:102BD000A360002B03DB0422216891432160002DB8
:102BE00002D1049E002B0AD0049E39002800FFF772
:102BF0001FF8039B013E5B5C3370AF4220D9082F66
:102C000009D12368DB0706D563682269934202DC99
:102C10003023013E3370049B9B1B2361079B09AA51
:102C200000932100069B0598FFF7E0FE431C2DD181
:102C3000012040420BB0F0BD4806B8D5ADB2B6E7B2
:102C40000500D2E71A680D68101D496918601368FD
:102C50002E0601D5196002E06D06FBD51980002310
:102C6000049E2361DAE71A68111D196016680021B5
:102C70006268300000F0ACF8002801D0801B606072
:102C8000636823610023049A1370C7E72369320045
:102C900006990598079DA847431CC9D023689B0740
:102CA00015D4099BE0689842C4DA1800C2E72200F4
:102CB0000123193206990598079EB047431CB7D0E7
:102CC0000135E368099A9B1AAB42F0DCE9E700257D
:102CD000F7E7C0467D3600008E36000070B506006E
:102CE0000D001400002804D08369002B01D1FFF7E8
:102CF000E5F81C4B9C4224D17468636EDB0705D455
:102D0000A3899B0502D4A06DFFF7CDF9A368013B11
:102D1000A360002B05DAA26993421CDBEBB20A2BFD
:102D200019D023685A1C22601D70EDB2636EDB0758
:102D300005D4A3899B0502D4A06DFFF7B5F928003F
:102D400070BD094B9C4201D1B468D6E7074B9C4249
:102D5000D3D1F468D1E7290022003000FFF75EFBF1
:102D60000500E3E72836000048360000083600007A
:102D700070B505000C00002804D08369002B01D138
:102D8000FFF79CF80F4B9C420ED16C682100280085
:102D900000F036F8002811D16368013B63602368B6
:102DA0005A1C2260187870BD074B9C4201D1AC6858
:102DB000ECE7064B9C42E9D1EC68E7E70120404292
:102DC000F1E7C0462836000048360000083600000B
:102DD000C9B28218904201D10020704703788B421B
:102DE000FBD00130F6E7092210B583891340002299
:102DF000092B02D1FEF7ECFF0200100010BD00000D
:102E0000F8B505000C00002804D08369002B01D11F
:102E1000FFF754F83E4B9C420AD16C680023636074
:102E20000C23E25E93B299060CD50120404269E082
:102E3000384B9C4201D1AC68F0E7374B9C42EDD156
:102E4000EC68EBE759074BD4D90605D409232B606E
:102E500037331343A381E8E7082633420AD0210021
:102E60002800FEF775FF0028DFD1A389A060B343D7
:102E7000A381A0610423A2891343A3812369002BAA
:102E800003D121002800FFF7FFFB0C23E75EBEB251
:102E9000B3070FD00123A381204B21491868FFF706
:102EA0008DF80923A7811E409E4203D121002800EE
:102EB000FEF7C4FE23692269236028006369216A42
:102EC000656AA84702006060002082421ADC0C2379
:102ED000E15E824217D120230B43A381013811E028
:102EE000616B0029CAD023004433994202D02800E4
:102EF000FFF7ECF80020236C606363608342BDD071
:102F0000E36B2360F8BD402360600B43A2E7C0463B
:102F100028360000483600000836000068360000F9
:102F2000E72D000000011C021D0E18031E16140FD1
:102F3000191104081F1B0D17151310071A0C120680
:102F40000B050A0944554D4D592048414E444C4506
:102F500052000A49535220737461636B206F766587
:102F600072666C6F77656400537461636B20706F79
:102F7000696E74657220636F727275707465642C0B
:102F800020726573657420746F20746F70206F6693
:102F900020737461636B000A436F6E7465787420EC
:102FA0006265666F726520686172646661756C74D3
:102FB0003A0020202072303A2030782530386C7862
:102FC0000A20202072313A2030782530386C780A77
:102FD00020202072323A2030782530386C780A2050
:102FE000202072333A2030782530386C780A00205F
:102FF000207231323A2030782530386C780A20201F
:10300000206C723A2030782530386C780A202020E5
:1030100070633A2030782530386C780A202070733D
:10302000723A2030782530386C780A0A004D69737E
:1030300063004558435F5245543A20307825303874
:103040006C780A00417474656D7074696E672074E1
:103050006F207265636F6E7374727563742073741E
:1030600061746520666F7220646562756767696E5A
:10307000672E2E2E00496E204744423A0A202073C4
:103080006574202470633D3078256C780A202066B2
:1030900072616D6520300A202062740A000A49536B
:1030A0005220737461636B206F766572666C6F7704
:1030B0006564206279206174206C656173742025D9
:1030C000642062797465732E0A0048415244204698
:1030D00041554C542048414E444C4552004E4D49B8
:1030E0002048414E444C4552006D61696E28293A92
:1030F00020546869732069732052494F5421202855
:1031000056657273696F6E3A20323031392E303421
:10311000290A0069646C65006D61696E0046414969
:103120004C454420415353455254494F4E2E00259F
:10313000700A002A2A2A2052494F54206B65726E69
:10314000656C2070616E69633A0A25730A0A002A69
:103150002A2A2068616C7465642E0A0A0000000047
:1031600000800040030208005F51737461746500C1
:103170006E616D650009706964207C20252D3231F7
:10318000737C20252D397351207C20707269207C3E
:1031900020737461636B2020282075736564292077
:1031A0007C2062617365206164647220207C2063EE
:1031B000757272656E7420202020200A000920207C
:1031C0002D207C206973725F737461636B202020F3
:1031D0002020202020202020207C202D2020202086
:1031E000202020202D207C2020202D207C202536F2
:1031F00069202825356929207C2025313070207CE4
:1032000020253130700A000925336869207C20258B
:103210002D323073207C20252D387320252E3173DC
:10322000207C20253369207C2025366920282535FF
:103230006929207C2025313070207C202531307098
:10324000200A007C0053554D000925357320252D9B
:103250003231737C2531337325367320253669204E
:1032600028253569290A000098320000A0320000A4
:10327000A9320000B2320000B8320000C0320000B3
:10328000C9320000D2320000DB320000E33200001D
:10329000EB320000F332000073746F7070656400ED
:1032A000736C656570696E6700626C206D7574651E
:1032B0007800626C20727800626C2073656E640026
:1032C000626C207265706C7900626C20616E796648
:1032D0006C00626C20616C6C666C00626C206D62CC
:1032E0006F7800626C20636F6E640072756E6E6939
:1032F0006E670070656E64696E67004445564943A9
:10330000455F545950453A2025690A0041444452CA
:103310004553533A20256925690A004E45544F50BC
:10332000545F53544154453A204F46460A004E4597
:10333000544F50545F53544154453A20534C4545E3
:10334000500A004E45544F50545F53544154453A2F
:103350002049444C450A004E45544F50545F535445
:103360004154453A2052580A004E45544F50545F3C
:1033700053544154453A2054580A004E45544F5036
:10338000545F53544154453A2052455345540A0022
:103390004E45544F50545F53544154453A20535472
:1033A000414E4442590A004E45544F50545F5354C5
:1033B0004154453A20554E4B4E4F574E3A202569C1
:1033C0000A00626C7565746F6F74682D746872653D
:1033D000616400547279696E6720696E69742E2E7B
:1033E0002E0A0044696E67652073696E64207061FF
:1033F0007373696572740A004C697374656E696EE3
:10340000672E2E2E0A000000663400007234000081
:10341000E51200007D3400007F340000B51200008A
:10342000A63400008F3400000112000000000000EC
:103430000000000000000000457920796F206576CB
:10344000656E74210A005468697320626F6172644A
:103450002069732072756E6E696E672042696B65B4
:103460003242696B650074696D65725F737475666D
:10347000660054696D657220546573740062005370
:103480007461727420626C7565746F6F746800503B
:1034900072696E7420626C7565746F6F74682073E6
:1034A000657474696E67730074696D65722D7468F4
:1034B000726561640043757272656E742074696D23
:1034C000653A20256C6420730A000406080A0C0E75
:1034D00010121416181C1E20222426282A2C2E30E6
:1034E000323436383A3C3E40424446484A4C4E021A
:1034F0001A50496E69742070617373696572742122
:103500000A000000A91600005D160000F516000074
:103510000000000019160000091500007368656CB2
:103520006C3A20696E636F72726563742071756F97
:1035300074696E670068656C7000446573637269D6
:103540007074696F6E00436F6D6D616E6400252D40
:103550003230732025730A002D2D2D2D2D2D2D2D6C
:103560002D2D2D2D2D2D2D2D2D2D2D2D2D2D2D2D8B
:103570002D2D2D2D2D2D2D2D2D2D2D2D2D2D2D00A8
:103580007368656C6C3A20636F6D6D616E64206E5C
:103590006F7420666F756E643A2025730A00000010
:1035A000C4350000CB350000791A0000DB3500007F
:1035B000DE350000831A000000000000000000005B
:1035C000000000007265626F6F74005265626F6F79
:1035D0007420746865206E6F6465007073005072AB
:1035E000696E747320696E666F726D6174696F6E57
:1035F0002061626F75742072756E6E696E672074DB
:103600006872656164732E00000000000000000015
:1036100000000000000000000000000000000000AA
:10362000000000000000000000000000000000009A
:10363000000000000000000000000000000000008A
:10364000000000000000000000000000000000007A
:10365000000000000000000000000000000000006A
:10366000000000000000000024020020232D302B69
:103670002000686C4C006566674546470030313273
:1036800033343536373839414243444546003031CA
:103690003233343536373839616263646566000029
:1036A000081100206003002040000000000000001E
:1036B000000000000000000013310000183100007D
:1036C00024020020000000002836000048360000D8
:1036D00008360000000000000000000000000000AC
:1036E00000000000000000000000000000000000DA
:1036F00000000000000000000000000000000000CA
:1037000000000000000000000000000000000000B9
:1037100000000000000000000000000000000000A9
:08372000000000002821000058
:0400000300000445B0
:00000001FF
