:100000000002002015040000F1030000A10300001D
:1000100000000000000000000000000000000000E0
:100020000000000000000000000000007503000058
:1000300000000000000000004D030000A9000000C7
:10004000A9000000D94D0100D50F0000A900000053
:10005000A900000000000000A9000000A9000000A5
:10006000990D0000A9000000A9000000F94D010051
:10007000A9000000E94D0100A9000000A90000004E
:10008000A9000000A9000000A9000000A9000000CC
:10009000A9000000A9000000A9000000A9000000BC
:1000A000A9000000A900000010B500F0A9F910BDDA
:1000B00080220F21014BD205D1507047240500004A
:1000C00010B500F07FFA10BD7047000070B50C004D
:1000D000060000F05BFA094B094A1D682C1994428E
:1000E00002D8084A944207D20C23012533606D429E
:1000F00000F054FA280070BD1C60F9E700020020EF
:1001000000400020B83D002010B51900100000F09C
:1001100062FA10BD10B51900100000F05FFA10BDB2
:100120001323036001204042704713230360012022
:100130004042704713230360012040427047002370
:10014000022203608A425B41180070470020124B74
:1001500010B51860114B12491B680A685C421C40BC
:10016000104B6343104CDB0EE35C104C9B001B599F
:100170001B680C3B93420ED0824204D010790A28AF
:1001800001D1013010710A221A710622985E084AC4
:100190000B601080012010BD640400205804002072
:1001A0006004002031B57C074E6801006C0400201B
:1001B0005C04002030B5037909291AD9092B14D819
:1001C00042791A4B92009B1802001C680C32002CDA
:1001D0000DD02468C4601C6822601A600123447931
:1001E000134AA340146823431360017130BDC260F9
:1001F000F3E7092BF9D943790C4D9B00EB181A68EA
:10020000002A04D01468A2420DD100221A60447959
:10021000A300EB58002BE8D10133A340044A146833
:100220009C432300E0E723681360F0E76C040020A0
:100230005804002010B5094B1B681A79092A02D905
:100240005B79834206D900F0ACF9002803D0012283
:10025000034B1A6010BD00F06FF8FBE7600400204C
:100260006404002070B5002400F090F9084B094A9E
:100270001B88094D1BB29B009C50084A2100136843
:100280002868013B1360FFF795FF2C6000F050F8E1
:100290005C040020AC0400206004002068040020FE
:1002A000D318032293431F4A10B51C1F2260620714
:1002B00003D0083B1C001C4B23608022231F5204E8
:1002C0001A601A4A043B1860043B1A600022043B7F
:1002D0001A60043B03321A60043B013A1A60043B83
:1002E000013A1A60043B19600632043B1A60043B71
:1002F000013A1A60043B013A1A60043B013A1A6061
:10030000043B07321A60043B013A1A60043B013A8D
:100310001A60043B013A1A602000032344385B4210
:10032000036010BD7777777788888888650200003A
:1003300000F030F901DFFEE78023034A5B055168D6
:100340000B4353607047C04600ED00E0EFF30980B7
:10035000EC4685464046494652465B46FFB47046E9
:1003600001B46846E54602490968086000F002F8F1
:1003700060040020FFF7EAFEEE46084800680068C7
:10038000854601BC8446FFBC8046894692469B4612
:10039000684680F30988F546604700006004002045
:1003A000104B114A5933FF3310496846904203D825
:1003B000984201D9002102E009468D46012104201E
:1003C0007246024202D1EFF3088001E0EFF30980A8
:1003D000F0B443464C4655465E4678B46B4600F052
:1003E00049F8C04600000020004000200002002024
:1003F00010B50249042000F06FFBC046076A0100F7
:1004000010B50249062000F067FBC0466E68010087
:100410007047000010B5FFF74BFE6A460E4B0F49C0
:100420009A4212D80E4B0F4A0F498B420FD300212C
:100430000E4B0F4A93420DD3FFF7EAFF00F00AFB81
:1004400014F0F0FF00F01AFB10BD02C3E8E701CA88
:1004500001C3EAE702C3EDE700000020FEE7FEE784
:10046000000200201C7601005804002058040020DF
:10047000B83D0020F0B58DB00A92364A0B93126851
:10048000354B040003919A4202D0344815F068F9C4
:10049000039B002B37D00025314815F061F92E0061
:1004A000304815F05DF90A992F4815F0CDF8039BF7
:1004B000002B23D12D4815F053F931002C4815F0AD
:1004C000C3F86946234BC91A2A4BC91803D54942B8
:1004D000294815F0B9F80B9B1E00201C8268C368E0
:1004E00001698C4641698E46AD46311CF0C9A04673
:1004F000A946B246BB46F0C94168006801BE1F4923
:10050000052000F0E9FA25002368E7690493636891
:10051000A6690593A36824350693E36807932369C6
:10052000089363690993BB0500D4043D144815F092
:1005300017F9079B059A00930499069B114815F03B
:1005400083F800973300099A08990F4815F07CF852
:10055000A6E7C04600000020FEE7FEE77C68010039
:1005600092680100576901005C6901006E69010031
:100570009F690100A8FEFFFFC7690100F46901003F
:10058000C1680100DC68010019690100EFF3108007
:1005900072B6704762B6EFF31080704780F3108830
:1005A0007047EFF30580C0B2704700008023002140
:1005B000034ADB059950243A01319950FEE7C046C1
:1005C000240500000023E12110B51A00490218009B
:1005D00000F014FC10BD86204042704710B50C009E
:1005E0000A000100002000F0DDFC200010BD10B565
:1005F000002000F0C1FB10BD70B5044C2568FFF76A
:10060000F6FF2368AB42F8D1184370BD38050020CF
:10061000054B0200186810B5002804D11202120A16
:10062000010000F083FB10BD3005002010B5094A21
:100630001368002B08D09C6881688C4207D303D1D3
:1006400059684468A14202D90360106010BD1A00C5
:100650001B68EEE73C0500208022F0B52A4D5204CD
:100660002B689B182B602B68002B03D1274A13683B
:10067000013313600020264B26491A681860264B68
:10068000224C1B680A6007001900A446002904D008
:1006900064468E682468A6421AD9002801D01E48F4
:1006A0000160002F13D0002139608A4228D0110048
:1006B000002B04D050685C68A04200D919000800E3
:1006C00012681B68002A0ED10360124B1960F0BD3E
:1006D0002C6826004C68240E2406B442DDD10F009D
:1006E00001200968D2E7002B01D10260EDE75568CF
:1006F0005E681400B54200D91C0004602000DFE7EA
:10070000044A1360E3E7C0463805002034050020A2
:1007100040050020440500203C050020174A10B584
:1007200013681100834211D11B681360002B04D0A1
:1007300058681438FFF76CFF10BD1148FAE798426B
:1007400002D103680B60F7E719001B68002BF6D194
:100750000C4A1368002B08D10B4A1368002BEBD00E
:10076000984204D01A001B68F8E7984202D1036847
:100770001360E1E71A001B68ECE7C046440500205F
:10078000FFFFFF00400500203C050020F8B50123D5
:10079000324E334D33602B68002B08D1FFF75CFFDE
:1007A000FFF725FF2F4B9842FAD0002402E0FFF715
:1007B0001EFF04002B68002B0BD1FFF718FF14302D
:1007C000844226D9FFF748FFFFF711FF8442FBD38D
:1007D000EBE75F68FFF70BFF844206D83B021B0A7A
:1007E000834202D91B1A132BE7D82B685F68FFF7E7
:1007F000FEFE844203D83F023F0A8742F5D82B68A9
:100800001A6818692A6000225A609A60DA6890476C
:10081000D0E72B68002B0CD05F68FFF7EDFE143F8C
:1008200014308742C6D3002338003360FFF7F0FE50
:10083000F8BDFFF7DCFE0700844202D9FFF70CFF8A
:10084000B3E7030014331B021B0A984204D9FFF7D5
:10085000CEFE8742FBD9F1E7024FE4E730050020E6
:1008600044050020FFFFFF00002310B5044A05499E
:10087000180000F023FA01204042FFF7C9FE10BD26
:100880008D07000040420F0070B5FFF7B5FE084B22
:1008900005001C68FFF7B0FE8542F6D80022230051
:1008A0001500040012196B411000190070BDC046FC
:1008B00034050020F8B504000D00FFF79DFE00236D
:1008C000060023602B1A282B0ED82D022D0AFFF7C5
:1008D0008EFE8542FBD3FFF78AFE8542FBD8E36894
:1008E000206998470020F8BDFFF750FE63680700B5
:1008F000002B02D1A368002B02D02000FFF70EFFCF
:1009000028001F4A143865601368864211D8A36016
:100910001368A2689A4205D81A4B1A68030E1B0680
:100920009A4208D02000FFF781FE3800FFF736FE1C
:10093000D8E70133EBE73602360AB0420FD9124A44
:1009400011001368002B02D05E68B54214D22360F8
:100950000C6013689C42E8D1FFF75AFEE5E70B4AAA
:100960001368002B02D059688D4202D223601460B4
:10097000DBE71A001B68F4E719001B68E2E7C046D2
:1009800034050020380500204405002040050020E3
:1009900070B50400FFF7FAFD63680500002B02D173
:1009A000A368002B02D02000FFF7B8FE2800FFF755
:1009B000F5FD70BDC36870B504000D00002B10D0AC
:1009C000FFF7E6FF272D0DD8FFF711FE0600FFF712
:1009D0000EFE831B1B021B0A9D42F8D8E3682069A8
:1009E000984770BDFFF708FE29182000FFF762FF47
:1009F000F7E70000F7B504000D00161E02D1FFF75F
:100A0000D9FFF7BDFFF7C2FD63680090002B02D14C
:100A1000A368002B02D02000FFF780FEFFF7ECFD5B
:100A20000B4B07001B680193FFF7E6FD8742F5D8E3
:100A3000019B28186060F318854207D82000A36046
:100A4000FFF7F4FD0098FFF7A9FDDAE70133F5E7BA
:100A50003405002010B500F001F910BD10B500F00C
:100A600057FC034814F0F0FD00F00EFC002010BD10
:100A7000136A010010B500F0E1F8FCE71FB5FFF7BD
:100A800085FD002480210D4B0F221B684900029335
:100A90000B4B019400930B480C2300F05BF8C02132
:100AA000094B07221B68C9000293084B019400936D
:100AB00007480C2300F04EF8FFF73AFC0402002030
:100AC000750A000048050020080200205D0A0000A9
:100AD00048060020704700000D4B10B51A680C0046
:100AE000002A0ED101321A60032803D17146094849
:100AF00014F0AAFD2100084814F0A6FD074814F0E0
:100B0000A3FDFFF743FDFFF7E5FFFFF74FFDC046ED
:100B1000480C0020AC6A0100B06A0100CC6A0100F8
:100B200070B50B79092B03D909490320FFF7D4FFCE
:100B30000A004C790C320368002B02D1CB600260B2
:100B400070BD1D000C3D6D79AC42F7D31800F2E783
:100B50009A6A0100F0B587B00500029103920493F0
:100B60000F2A31D803230A00034003D0C51ACB183B
:100B700004351A1F13000322343B93430593EC18EA
:100B8000049B1B0717D42D6003E01B600433A342B2
:100B9000FBD3FFF7FBFC0123264A0190990056582E
:100BA0001FB2002E13D00133212BF7D10198FFF78C
:100BB000F5FC8B2709E02B00E9E72000FFF7FAFAA4
:100BC0000198FFF7EBFC32E016277F422FE08C50B4
:100BD000059B2A000D99E7800C98FFF761FB029BAB
:100BE000012123630E9B144AE362039B206063711F
:100BF00001235B4223621368A56201331360049BE7
:100C00002671E66026616661A661E66166620B4256
:100C1000D3D10B212000FFF7CDFA049B5B07CFD483
:100C20000198FFF7BBFC6B469889FFF703FB380080
:100C300007B0F0BDAC040020680400200421064A7F
:100C400010B513698B431361FFF7A0FCBFF34F8FFF
:100C500030BFFFF7A3FC10BD00ED00E010B500F0C1
:100C600097FB00F003F800F0E9F910BD8022AA23F9
:100C7000FF21D205DB00D1500021044B5960013126
:100C800011605A68002AFCD07047C046FC00004042
:100C900080218323C905DB00CA5880235B021A40E8
:100CA00009D1A3230120DB00C850034B9A60886060
:100CB0009A68002AFCD07047FC00004030B500283C
:100CC00023D1134C02250CC40122124B124C1A5191
:100CD000A124E4005A601D51104C1851DA60104AEA
:100CE00091420ED1A222D2009850002080210D4ABC
:100CF000490050649064D0640B4A116001221A606C
:100D000030BD013052080A28EAD101204042F7E7FD
:100D10004C0C002000800040FC0F00000405000087
:100D20000024F400FC80004000E100E0F0B5104D2C
:100D3000C600AB191B798B4216DD0C2358430D4BB3
:100D40001B18012007008F401C7A3C431C720B00CB
:100D500051337459FF339B001A518023C1225B0227
:100D60008B409200A350F0BD01204042FBE7C046FB
:100D7000DC6A01004C0C00200649C0000B181A79EF
:100D8000435892009B1801221A64A822D200985856
:100D90007047C046DC6A010070B58025C226002479
:100DA0006D02B600114BA200D218536C012B12D168
:100DB000002151640E4A117A0800204118420AD0DD
:100DC000A34099432B00A34011720A4950688B51EC
:100DD0001368210098470134032CE3D1064B1B68AC
:100DE000002B01D0FFF7A8FA70BDC046FC80004080
:100DF0004C0C0020008000406404002070B50D0001
:100E00001600002800D0A2E0524A534C53601660EE
:100E10000122524BE250524BE050002E06D001000E
:100E2000113000F0F7F811224E4BE250032112204E
:100E300000F0F0F812224C4BE2500123A1225B4259
:100E4000D200A3500832A35096231B029D4200D12A
:100E50006BE023D896239B019D425DD00ED896234C
:100E60001B019D4251D096235B019D4251D0962398
:100E7000DB009D4235D00220404245E09623DB0155
:100E80009D424CD0E123DB019D424BD0E1239B01ED
:100E90009D42F0D1EC22354B920325E0E1239B02E9
:100EA0009D424BD00ED896235B029D4240D0E12359
:100EB0005B029D423FD0E1231B029D42DBD12B4BC5
:100EC0002B4A11E0E123DB029D423AD0E1231B03D0
:100ED0009D4239D0274B9D42CDD18022234BD20455
:100EE00002E09E22214BD202E250A0220423D20033
:100EF000A3500122301EA26006D0C121002089002B
:100F0000635022601C4A136070BD9D22174B120370
:100F1000EAE7164B194AE7E7144B194AE4E7134B83
:100F2000184AE1E7114B184ADEE7104B174ADBE796
:100F30000E4B174AD8E70D4B164AD5E70B4B164A0E
:100F4000D2E70A4B154ACFE7084B154ACCE70120F8
:100F500092E7C046580C002000200040FC0F000023
:100F60006C050000140500000C05000024050000BD
:100F700000F0EB0090D0030000E100E000B01300AF
:100F80000050270000A04E0000F0750000509D00AA
:100F900000903A0100E0D70100B0AF0300705F0796
:100FA00000D0BE0E70B500240748084B084D8A18C3
:100FB000914200D170BD1C620E7846511E6A002E0F
:100FC000FCD00131F4E7C04600200040FC20004086
:100FD0001C0500000B4B10B5DA68012A0AD100226B
:100FE000DA60A323084ADB00D158084BC9B21A685B
:100FF00058689047064B1B68002B01D0FFF79CF9FF
:1010000010BDC046FC20004000200040580C0020CD
:10101000640400200C290CD801238B40064A13429B
:1010200007D0A023C130FF308000DB05C150002075
:10103000704701204042FBE7191000007047000094
:1010400073B515003A4814F08BFBAB683949186842
:1010500007F05EFB041E46D1374814F081FB287868
:1010600003283BD813F0EEFE02153438334814F051
:1010700077FB334C3348210014F0E6FA20006D680A
:1010800014F00AFC210082B2280009F01AFC0400C6
:1010900019E02D4814F064FB294E2C48310014F05F
:1010A000D3FA6B4668689D1D038A40222B8031006D
:1010B0002B0004F017FF00222B8804003100244885
:1010C000F25414F0C1FA234814F04AFB200076BD14
:1010D000214814F045FBF6E72048FAE7204814F0D1
:1010E0003FFB0124EFE7AB681E49186807F010FBCF
:1010F000041E17D11C4814F033FB2B78002BE5D1CC
:1011000014F05CFB0A2114F021F80B00174C30336B
:10111000DBB2174A6421200014F08CFB200014F08D
:101120001FFBABE7134814F01BFB0124CEE7C046BE
:10113000196C0100B76D01003E6C0100696C010083
:10114000A8020020826C0100AD6C0100C56C01009A
:10115000EC6C0100D96A0100136D0100286D0100DB
:101160003C6D0100A66D0100516D0100600C002076
:10117000806D0100966D010037B515000E4814F022
:10118000EFFA0E4C0E4B0F4A6421009320000E4BD9
:1011900014F050FB200014F0E3FA20006D6814F006
:1011A0007BFB210082B2280009F08BFB040007487A
:1011B00014F0D6FA20003EBD936B0100600C0020B5
:1011C000136C0100D06B0100C36B0100D96A0100F0
:1011D00070B515000D4814F0C3FA0D4C0D4B0E4AB6
:1011E0006421200014F026FB200014F0B9FA20003E
:1011F0006D6814F051FB210082B2280009F061FBF8
:101200000400064814F0ACFA200070BDE46A010046
:10121000600C00201B6B0100766B0100D96A010095
:1012200010B586B003AC0A220021200014F05CF94E
:101230000021094B094A2380094B1878094B019179
:101240000093230000F0FAFB002803D00649032096
:10125000FFF742FC06B010BD02020000FFFFFF7F57
:10126000802D00206D1200009A6A0100037810B5ED
:10127000002B03D0012B04D0002010BD4368002BAD
:10128000FAD0FFF7CDFFF7E730B51D488DB014F069
:1012900067FA1C4C200003F06FF9002803D01A49AC
:1012A0000320FFF719FC200003F042F9041EF6D1D9
:1012B000164D28000AF046F902F008FF220004A9A2
:1012C00001A81F2300F02AF86B46DA1C06231370CE
:1012D000053B190001A800F02FF8280014F0DCFAF3
:1012E0002A000300092101A800F026F802990198BC
:1012F00000F082FCFFF794FF20000DB030BDC04627
:101300000C6E0100DC6D01009A6A0100276E01007D
:1013100010B5FFF7A9FA0AF0ADF810BD10B5002816
:1013200003D104490320FFF7D7FB0029F9D00EC0F1
:1013300010BDC0469A6A010070B504001D00080087
:101340001100002C03D111490320FFF7C5FB63688E
:10135000AA1CA668D218B24214D85A1C2668626029
:101360006A1CF25463685A1C62602268D054236875
:10137000626898182A0014F09BF8002063685D19D1
:10138000656070BD02204042FBE7C0469A6A0100DA
:10139000184B19491A6AF0B511408022D2030A434A
:1013A00080211A62DA69C9051202120A0A43DA6157
:1013B0000322C02500219446FF27AD0064463E006D
:1013C0000C40E400A6408A080C48920012185059BC
:1013D0000131B0434026A640304350511A29EDD187
:1013E000102219690A431A618022596992000A433E
:1013F0005A61F0BD00ED00E0FFFF00FF00E100E0FA
:1014000070B50500054B1C68002C01D1200070BD93
:101410006168236828009847A468F5E7C40C002099
:1014200070B50C0088B001AE3100050003F008FD76
:10143000019A20006260B2880B212281B2790726CE
:10144000A272694432000B3014F032F820001221ED
:1014500032006944123014F02BF8200019213200B8
:101460006944193014F024F8AB88EA1C2384AB8B50
:101470006384EB8BA3842B8C2835E3842300D27FF9
:1014800029331A702B6B236001232A782834934365
:10149000237008B070BD0000082110B5054A1388FC
:1014A0005B0A5B021380537C8B43537403F038FA5E
:1014B00010BDC046C80C002070B505000E0003F03A
:1014C000E5F9084C2B00220023CA23C303CA03C337
:1014D000002E03D0FFF7E0FF0023237403F0DAF9B6
:1014E00070BDC046C80C002010B5011E02D00248D5
:1014F00009F06CFD10BDC046080D002070B5074D09
:1015000000202C68FFF738FC2B689C42F7D1FA21A9
:101510002043890013F0AAFC70BDC04638050020A6
:1015200007B50223C9B2C0B201AA03F0E0FF02224C
:1015300001A9024803F012FE0EBDC0460C200000B7
:1015400007B5C0B2012201A903F0CFFF012201A912
:10155000014803F003FE0EBD0A20000010B50C1E6A
:1015600004D01100A0470400200010BD0278042A16
:10157000FAD1836841680832180013F099FFF3E745
:10158000F8B50C00070003F081F9200003F022FCFD
:10159000041E0CD0C56D066E03F07CF90720002CEC
:1015A00004D0320029003800FFF7D8FFF8BD06004C
:1015B0000500F1E7044B01201B7C002B03D1034BFA
:1015C00058784007C00F7047C80C0020DC0C002082
:1015D000F0B58FB0070003F059F90D4B0D491A888B
:1015E0009D680A401A80DE6803F09AF903F052F908
:1015F000002D0BD001AC00213422200013F074FF29
:1016000009236760237031002000A8470FB0F0BDA8
:10161000DC0C002000EFFFFF70B50F4D2B78002B86
:1016200018D06B78DB0615D56C68FFF767FF201ABA
:10163000002810DC0020FFF783FF03006420002B4C
:1016400009D12B88054A13402B8003F069F90D203E
:10165000FFF7BEFF024870BDDC0C002000EFFFFF6B
:10166000FFFFFF7F70B5094D00202E78FFF768FF60
:10167000041E08D12B88064A13402B8003F050F932
:10168000012E00D00234200070BDC046DC0C0020CA
:1016900000EFFFFF0C4970B50A6800231400002C0E
:1016A00001D1200070BDA58A854205D023002468A1
:1016B000F5E722681A6003E0002BFAD113680B608B
:1016C00003F02EF9EDE7C046EC0C0020022010B527
:1016D000074C237883420AD100220648110003F008
:1016E0003DFD002803D10823627C1343637410BDC1
:1016F000C80C00200E20000070B504000D0003F09F
:10170000C5F8200003F066FB041E04D0002D02D0B3
:101710002900FFF785FE63425C4103F0BBF8072018
:101720006442204070BD000070B51A4B92B01E7824
:101730000400012E2BD15B7C05AD33420ED04278E4
:10174000C1682B00300003F031FA002806D1059B58
:101750001A78022A02D19B78334218D03422002111
:10176000280013F0C1FE07232B7006AB07CC07C37C
:1017700007CC07C300216846FFF79EFE029B002BA3
:1017800002D00399280098472800FFF739FE12B0CD
:1017900070BDC046C80C0020F0B50E00417897B06F
:1017A000050000294CD002290BD03C2944D17D4BA7
:1017B0001B78012B01D00020CCE00020FFF708FFB0
:1017C000F9E7794A1378002BF5D0127C022A18D158
:1017D000022BF0D1012104A8FFF76EFE069B0193B6
:1017E000002BE8D009AC00213422200013F07CFE4D
:1017F000002323701D3363600799069B20009847E0
:10180000D9E704AD01212800FFF756FEAB68002B95
:10181000D1D009AC34220021200013F065FE002352
:101820006A7C2370013B23810A33120700D40433FE
:101830006360E968AB68E1E75C490320FFF74CF9B6
:10184000408803F0E0F90028B5D02B79002B00D1B7
:101850007AE0012B00D17FE0688803F06BFAAB8956
:1018600004008383EB89C3832B8A0384AA7CC31C73
:10187000DA772B79002B00D07AE04B4B01009A6885
:101880002831C265DA685B7C0266012208785B0752
:1018900002439B0F0A70A371FFF7FEFD20006B79D6
:1018A000A91DE3710622083013F002FE012629006B
:1018B000200006221331A6730F3013F0F9FD2F001C
:1018C0000722002104A813F00FFE0920193702ABEC
:1018D00006223900C01813F0DDFD00285AD1E37943
:1018E000B3420AD13F22637B9343402B05D12000B2
:1018F000E11D383A153013F0DBFD09AE02F0C6FFEA
:1019000000213422300013F0EFFD200003F06EFAC6
:1019100002F0C0FF002333706A88300032817360A8
:10192000FFF76EFD69883000FFF72AFE6888022203
:1019300003A903F090FE002800D03CE7022203A98F
:101940001B4803F00BFC36E7174B05201B78022BD6
:1019500000D181E717B0F0BD0520002EFAD1114B60
:101960001A78012AF6D15B781B0700D574E7F1E7F6
:101970000C49360189198B680E4AC365CB6803662A
:101980004B789B079B0F83710B8813400B8002F0F1
:10199000C7FF83E72000667506223900163013F072
:1019A00087FDAAE7DC0C0020C80C00209A6A010021
:1019B0001620000000EFFFFF70B5040002F066FF84
:1019C000608803F007FA051E06D06378002B03D168
:1019D000201D08F0D5FD686202F05CFF70BD70B597
:1019E0008EB001AC05000E0034220021200013F05F
:1019F0007BFD0523290020002370A5816660FFF789
:101A0000BFFD0EB070BD30B58FB001AC0500342203
:101A10000021200013F068FD122323706B78200052
:101A200063606B882381AB886381FFF7E9FC698879
:101A30002000FFF7A5FD0FB030BD0000F0B58FB05E
:101A400001900F0002921D00032402F01FFF002DE1
:101A500014D0019BA34211D86B78022B0ED8624E92
:101A6000013C3378002B09D12B78012B00D18AE07F
:101A7000002B08D0A34200D179E0013402F00AFF24
:101A800020000FB0F0BD2B7A0324DB07F6D4029BB5
:101A90001A00564B9A4200D07DE002F031FF1E241E
:101AA0000028EBD0FFF786FD013C0028E6D1019825
:101AB00004F092F9041EE1D10322149B0199B36052
:101AC000159B1140F360737893432A780B43501EA3
:101AD00082410821D2008B431343737007222100F7
:101AE00004A813F001FD002F00D104AF2220019BB8
:101AF0000AAEB3703B78791CF37004AB0622C018B1
:101B000013F0D6FC69882B78AA8800294FD1002AC7
:101B10004DD1002B42D0022B45D9AA79002A00D101
:101B200007327270EA793271002B42D0012B45D016
:101B30000F2206A93000347003F072FC0324002841
:101B40009CD10F2206A92A4803F008FB041E00D0EE
:101B500094E70120244D2870FFF7F2FC041E33D0D7
:101B60002B88244A13402B8002F0DAFE86E72B7A7A
:101B70000324DB0700D581E703F06AF80624002878
:101B800000D084E77AE70324002F00D176E73B7882
:101B9000A342F1D972E7029B03937EE7A022F28071
:101BA00050323281B9E73022F2809218F9E7F180A1
:101BB000F7E76C7863425C410234B9E72A7A1C008B
:101BC0001A42B5D10424B3E7029B1A00074B9A428C
:101BD00000D153E7FFF792FC039B6A781818102393
:101BE000134368606B70BFE7DC0C0020FFFFFF7FD2
:101BF0000620000000EFFFFF30B50C00050089B0A3
:101C000002F044FEE1B220236A46280003F048FCBB
:101C1000041E05D120226946044803F09FFA0400FF
:101C200002F038FE200009B030BDC0460820000098
:101C3000024B18780138434258417047DC0C0020B1
:101C4000024B18780138434258417047C80C0020B5
:101C5000024B18780238434258417047C80C0020A4
:101C6000F0B5070085B0019102F010FE380003F0D6
:101C7000B1F80726002816D0022528300378040082
:101C80002E002B420FD1032303AA0199380003F041
:101C90001BFC032203A9064803F060FA061E02D1CA
:101CA00023781D43257002F0F5FD300005B0F0BD2E
:101CB0000604000070B58EB001AC05000E003422A1
:101CC0000021200013F010FC032320002370258145
:101CD0006660FFF795FB29002000FFF751FC0D2EF1
:101CE00003D113212800FFF7BBFF0EB070BDF0B584
:101CF000040091B003AD34220F002800002113F03E
:101D0000F3FB02F0C3FD200003F064F8061E06D0CA
:101D100005A9FFF785FBF36D0093336E019302F085
:101D2000B9FD002E2ED002F0B1FD2000FFF7B2FC6D
:101D3000060002F0AFFD002E06D020003900FFF7AC
:101D4000B9FF3000FFF7D0FB3900200004F066FE39
:101D5000200006F033FA200002F07CF9200001F0A8
:101D6000E8FD200003F01AF9200002F037FF0123FC
:101D700028002B706F60FFF743FB019A0099280041
:101D8000FFF7ECFB11B0F0BD30B581788FB00500E6
:101D900000290AD1EB780088002B02D08022920023
:101DA0009918FFF7A4FF0FB030BD01AC3422002119
:101DB000200013F099FB062323702B88AA78238137
:101DC00000239A4202D080239B00D3182000636036
:101DD000FFF716FB29882000FFF7D2FBE3E700009E
:101DE00070B5040090B03422002103A801AE13F0B6
:101DF0007BFB08220021300013F076FB02F046FD49
:101E0000608802F0E7FF002804D06378002B1BD025
:101E10001A2B20D03388002B04D16088FFF73AFCBE
:101E2000FFF762FB02F036FD318800291DD031003A
:101E300060880023194A04F069FD011E02D0608801
:101E4000FFF738FF10B070BDA3888383E388C38396
:101E500023890384DEE7124A63881568002DD9D0F0
:101E6000AA8A9A4208D02D68F8E76378002BE6D05A
:101E7000802292009918E2E728300378DB07C9D462
:101E8000AB883380EB8873802B89B3806B89F380B8
:101E9000FFF734FB034BC0182861BBE7A91E000005
:101EA000EC0C0020409C000070B504000D0002F016
:101EB000EDFC2000FFF7EEFB060002F0EBFC002E2D
:101EC00008D03000FFF710FB002D03D029002000C0
:101ED000FFF7F0FE70BD0000F0B53B4D93B02B78DE
:101EE000002B0ED001266B7833420AD06C68FFF7C6
:101EF00005FB241A002C0EDC2F78B7422AD0022FC3
:101F000001D0324C07E000223148110003F026F9DD
:101F100000281BD0642402F0B9FCFFF7EFFA2D4B28
:101F20002A4D1A682C4E002A32D1002D3BD002F0E7
:101F3000B1FCAC4200DD2C00FFF76EFBA04202DCDE
:101F4000FFF76AFB0400200013B0F0BD6B78B343C9
:101F50006B70D6E700210800FFF7E2FA051ED9D121
:101F600005AC01003422200013F0BEFA082339002A
:101F7000684623706560FFF79FFA0299002903D035
:101F8000039A2000FFF7EAFA2000FFF739FAB8E7D2
:101F900013691B1AD943C9170B40AB4201DA1D0064
:101FA000968A1268BFE73000FFF774FB070002F063
:101FB00071FC002FBDD030000D21FFF77BFE3800F3
:101FC000FFF792FAA7E7C046C80C0020FFFFFF7F8B
:101FD0000E200000EC0C0020FFFF0000F0B59DB0CB
:101FE00006000FAF00213422380013F07DFA6A4654
:101FF000B38804AC9380F388D380338913817389C9
:10200000538100239C460393230001AA23CA23C3C0
:1020100034226146380013F067FA04233B7071885C
:1020200001AB38007B60B981BC60FFF7A9FA728808
:102030000BAB1A8000280CD09870032207A9180057
:1020400003F093FA032207A9164803F087F81DB09E
:10205000F0BD228818005A80628807A99A80A28859
:10206000DA80E2881A8122895A8162899A810E2255
:1020700003F058FA0E2207A90B4803F06FF8041E6C
:10208000E5D0758802F002FC2800FFF703FB06008C
:1020900002F000FC3000FFF727FA21002800FFF7CC
:1020A00009FED4E72120000020200000F0B58DB00B
:1020B00001900A884B880D0003269A4200D978E0E7
:1020C000052A00D875E0C8221201934271D88A8887
:1020D000F421FF318A426CD801325343E9889B10C6
:1020E000994266DD0822002102A813F0FDF902F0F2
:1020F000CDFB019802F06EFE3B4B041E08D1072673
:10210000270046E0009B019A9B8A934254D0009B93
:102110001B680093009B002BF4D1344808F01CFF8F
:102120000626071E34D018220099380013F0DCF977
:10213000019B0C22BB822900381D13F0B9F9FFF76F
:10214000DDF92B4BC018636A38619B0705D428342E
:1021500023780124009E23421BD0019B08A8038002
:102160002B880E2243806B8804A98380AB88C380B0
:10217000EB8803812B8943816B89838103F0BAF952
:10218000061E05D10E2204A91A4802F0E7FF060038
:10219000002402F07FFB002C11D102F0C1FB02F001
:1021A00075FB002E1CD1104B1A681F603A6002F0BC
:1021B00071FB30000DB0F0BD02260024A0E72B8893
:1021C00002AA13806B8802A95380AB880198938080
:1021D000EB88D3800023084A04F098FB0600DEE772
:1021E0003800FFF781F9E2E7EC0C0020080D002031
:1021F000409C000013200000A91E000070B58EB0A6
:1022000001AC060034220D002000002113F06CF90F
:102210000B23A681237002AB06CD06C3200031003C
:10222000FFF7AEF90EB070BDF0B58FB001AC050090
:102230000E00170000213422200013F055F90A2364
:102240002000237025816660FFF7DAF8290020005E
:10225000FFF796F9002E04D12800002F03D002F0DA
:10226000F8F80FB0F0BD02F0CBF8FAE730B58FB058
:1022700001AC050034220021200013F035F91023B1
:10228000290020002370A580FFF77AF90FB030BD38
:1022900030B58FB001AC050034220021200013F0CE
:1022A00023F911230622290002A8237013F000F954
:1022B00029882000FFF764F90FB030BDF0B591B068
:1022C00003AC05000F00160000213422200001930A
:1022D00013F00AF90C2301212370019A237B0A4091
:1022E0008B43134320002373658127816660FFF7CA
:1022F00087F829002000FFF743F9606808F0D3FA57
:1023000011B0F0BDF0B591B003AC0D0007001600A0
:10231000002134222000019313F0E6F80D2301215F
:102320002370019A237B0A408B431343290020002A
:102330002581676066812373FFF722F911B0F0BD34
:10234000F0B593B0009318AB1B7805AC019319ABB3
:102350001B78050002931AAB1B780F0016000021B2
:1023600034222000039313F0BFF80E23009A0121BA
:102370002370531E9A41637AA5808B4301991343BE
:102380000222481E81419343029A4900501E824115
:102390000B43042192008B431343039A2000511EE8
:1023A0008A41F721D2000B4013436372E780267203
:1023B000FFF726F829002000FFF7E2F813B0F0BD80
:1023C000F0B58FB001AC05000F00160000213422DB
:1023D000200013F089F80F2320002370A580E780E8
:1023E0002681FFF70DF829002000FFF7C9F80FB08C
:1023F000F0BD000070B5FFF735F9002804D10423C3
:102400000B4A51780B435370FFF760F9094C0028D1
:1024100001D1022323742578012D08D10021080061
:10242000FFF77EF8002802D1FFF736F8257470BD5B
:10243000DC0C0020C80C002010B502F027FAFFF7D2
:10244000B9F8002801D1FFF7D5FF02F023FA10BD3B
:10245000F0B5214F91B00121380009F081FC1F4DEA
:1024600008220021280013F03FF802F00FFA1C4B5D
:102470005A78510706D504218A435A709A68DB6856
:102480002A606B60174B00261A7C012A05D11E7446
:1024900016009968DB680091019302F0FBF90923AB
:1024A00003AC2968237014336360002903D06A6881
:1024B0002000FFF753F8380009F082FC002E08D006
:1024C0000823019A23700099153320006360FFF7F9
:1024D00045F811B0F0BDC046240D0020280D0020A5
:1024E000DC0C0020C80C002010B50B4C2268130037
:1024F000002B01D1052010BD834207D09B68F7E770
:102500001A0093688342FBD1916003E099689A4274
:10251000F7D121600020EEE7C40C002007B514229B
:1025200000210F4812F0E0FF102200210D4812F0A8
:10253000DBFF00230C4A012113600C4A0C48136096
:102540000C4A13600C4B182200930C4B08F0B8FC9B
:10255000031E03D00623012800D0053318000EBD4A
:10256000C80C0020DC0C0020240D0020EC0C002006
:10257000080D0020C40C0020366E0100F00C002075
:1025800043680A6801209B1A002B04DD4A6800207A
:102590009A4200DD4B6070470123C07A18407047B3
:1025A000031E06D00E2800D100210348038041807D
:1025B00070470100F9E7C046380E0020F8B5040066
:1025C000C56800208C461E00854209D01100604677
:1025D0002789FFF7E5FF2369010032003800A8478B
:1025E000F8BD002310B51A000D21FFF7E7FF10BD5D
:1025F00010B50023FFF7E2FF10BDF8B50400056930
:1026000000208C461E00854209D0110060462789B3
:10261000FFF7C6FF6369010032003800A847F8BD24
:10262000002310B51A000D21FFF7E7FF10BD852329
:1026300010B55B00994200D10E2189B20023FFF74B
:10264000DCFF10BDF8B50400456A00208C461E0072
:10265000854209D0110060462789FFF7A1FFA36AD0
:10266000010032003800A847F8BD002310B51A0059
:102670000D21FFF7E7FF10BD852310B55B009942E0
:1026800000D10E210023FFF7DDFF10BDF8B50400D7
:10269000456900208C461E00854209D01100604625
:1026A0002789FFF77DFFA369010032003800A847A2
:1026B000F8BD002310B51A000D21FFF7E7FF10BD8C
:1026C00010B5038A002B04D10B33FF33994200D19C
:1026D0000E210023FFF7DAFF10BDF8B504000569ED
:1026E00000208C461E00854209D0110060462789D3
:1026F000FFF756FF6369010032003800A847F8BDB4
:10270000002310B51A000D21FFF7E7FF10BD852348
:1027100010B55B00994200D10E210023FFF7DDFFC9
:1027200010BDF8B50400456A00208C461E008542A5
:1027300009D0110060462789FFF732FFA36A010024
:1027400032003800A847F8BD002310B51A000D214B
:10275000FFF7E7FF10BD852310B55B00994200D15C
:102760000E210023FFF7DDFF10BDF7B5040045691A
:1027700000208C461E0085420BD011006046278940
:10278000FFF70EFFA36901000093A2893300380010
:10279000A847FEBD002310B51A000D21FFF7E5FF85
:1027A00010BD852310B55B00994200D10E21002396
:1027B000FFF7DBFF10BDF8B50400056900208C466B
:1027C0001E00854209D0110060462789FFF7E8FE08
:1027D0006369010032003800A847F8BD002310B536
:1027E0001A000D21FFF7E7FF10BD10B50023FFF71A
:1027F000E2FF10BD13B514006A46838913800022DE
:102800006B465A80236801936B46FFF7D4FF019B08
:102810000E20236016BDF8B50400456A00208C46E2
:102820001E00854209D0110060462789FFF7B8FED7
:10283000A36A010032003800A847F8BD002310B594
:102840001A000D21FFF7E7FF10BD10B50023FFF7B9
:10285000E2FF10BDF8B50400056900208C461E009B
:10286000854209D0110060462789FFF799FE636908
:10287000010032003800A847F8BD002310B51A0047
:102880000D21FFF7E7FF10BD10B50023FFF7E2FFB2
:1028900010BDF7B51C000023050000938C46231ED5
:1028A00000D0236800202E6A0193864209D01100CF
:1028B00060462F89FFF774FE6B6A01006A46380094
:1028C000B047002C01D0019B2360FEBD002310B552
:1028D0001A000D21FFF7DDFF10BD10B50023FFF733
:1028E000D8FF10BD70B50400856900200B0085423B
:1028F0000AD0110018002689FFF752FE22000100BD
:102900000C32E3693000A84770BD10B500220D21DC
:10291000FFF7E8FF10BD10B50369C4891A8A0A23BE
:10292000944203D30022FFF7DDFF0E23180010BDF1
:1029300073B50400056B00200B0085420ED011001A
:1029400018002689FFF72CFE230022000100606B8F
:102950002C331B780C3200903000A84776BD10B5A0
:1029600000220D21FFF7E4FF10BD10B50022FFF794
:10297000DFFF0E2010BD000070B5054D00202C6853
:10298000FEF7FAF92B689C42F7D1204370BDC04690
:1029900038050020F0B51E00002585B01D6073606D
:1029A00002900F00039201F071FF164B1C68002C7F
:1029B00018D02368390001932000029B9847002813
:1029C0001DD0002D12D10F4B1A6812681A60002A10
:1029D00000D15B600023236073681C60039B7460FC
:1029E000012B0BD101F056FF05B0F0BD2B681B6821
:1029F0002B60002BEED1034B5D60EBE72C00250034
:102A0000019CD4E72C0E002010B501238289018996
:102A10000D20FFF777FC10BD70B5041E08D0837A37
:102A20000C2B06D00D2B15D021000B4808F0CEFA48
:102A300070BD006907F037FFF6E7EB00E05807F0DC
:102A400032FF2B0022002C3212785D1C013B9A428F
:102A5000F3DCE9E70123F5E7100E002070B5C38928
:102A600004000D001600002B07D00269128A9A425A
:102A700003D90089002106F0DBF93200290020008B
:102A8000FFF730FF70BDF7B50600030035002D33AA
:102A90001F78013B1B7800890C35BB4209D8012106
:102AA00006F0C6F907000024200007F0FCFE3800FD
:102AB000FEBD05F028FF053884B2002C1DD0FF00B4
:102AC000ED196B686A881B8A9B1AA34200DD2300FC
:102AD000F38503F0EEF90627041EE5D0F38D6A882E
:102AE000696807F04FFF01900028DDD16A882988C6
:102AF0003089230006F046F9D4E70727D4E7F8B574
:102B00000400008905F0FFFE0538002827DD236951
:102B1000E2891B8A9B1A834200DD0300002B0ADC3A
:102B20002089012106F084F906000025280007F01D
:102B3000BAFE3000F8BDA38203F0BBF90626051EDD
:102B4000F4D0A38AE289216907F01CFF0028EDD1A7
:102B5000E289A18920892B0006F014F9E4E7072611
:102B6000E3E7000013B504000422064901A812F0AF
:102B70009FFC218C628C013189B2208901AB05F068
:102B8000F1FF16BD466E010013B50400042206498C
:102B900001A812F08DFCA189E289013189B2208956
:102BA00001AB05F0DFFF16BD466E0100042213B530
:102BB00004000A4901A8891812F07AFC218A2089A8
:102BC000002907D1A189E289013189B201AB05F061
:102BD000C9FF16BD06F025F8FBE7C046466E0100AA
:102BE000F0B50600040087B00C3602AD29003000B5
:102BF00005F0DAFD30002789248C05F0F9FDA023CB
:102C00000134A4B2019000959B01034A21003800D1
:102C100005F058FF07B0F0BDFFFF000013B504003A
:102C200007490422083101A812F042FCA189208939
:102C3000013189B201AB034A06F03AF816BDC0462D
:102C4000466E0100FFFF000010B5054808F084F94A
:102C5000041E03D03822002112F046FC200010BDD3
:102C6000100E002037B50B000A88694600240A8040
:102C70005A684C80050091B2986803F01FF906214C
:102C80000190A04200D021006B4600222800FFF7EF
:102C9000C2FD0400019807F006FE002C00D00E24AF
:102CA00020003EBD70B504000D00072909D12800A1
:102CB000A28921890123FFF725FB208901F0E4FA8D
:102CC00070BD8189008901F009FB0028EFD0F7E78A
:102CD000F0B50E0089B001AD1C22070000212800CC
:102CE00012F002FC338872682B80052A02D00A2475
:102CF000132A08D1B368033AD91C03A805F02CFDA8
:102D0000041E0BD00A242B00002221003800FFF7FC
:102D1000E4FC204300D00E2009B0F0BDB068037879
:102D200001302B7107F027FC3388BA8968809A42FA
:102D3000E8D2BB81E7E7F0B50F0089B001AE1C22F5
:102D400005000021300012F0CFFB3B887A68338009
:102D5000052A01D0132A25D1BB68033AD91C03A840
:102D600005F0FAFC041E1DD1B868037801303371F8
:102D700007F001FC3B882A8C70809A4212D229000D
:102D80002B840C3103A805F0C3FC002807D13300C5
:102D9000220021002800FFF7C4FC002808D12000F1
:102DA00009B0F0BD00230A211A002800FFF7B9FC82
:102DB0000E24F4E710B50C880389020000209C4221
:102DC00007D18B78927A01309A4202D0FF3B584269
:102DD000584110BD0A880E4B70B59A4203D0048941
:102DE0000023944208D10022857A8C684B68944273
:102DF00004DC00200123C860180070BD18000833EF
:102E00001E00083E3678AE42F4D00132EFE7C046ED
:102E1000FFFF000010B5002905D000231A00FFF7BE
:102E2000FAFC0E2010BD0B000A000E21F7E700008F
:102E300070B50C1E14D0062912D101230024C27AC9
:102E4000084D1343C3722B68A34209D1FFF794FDC9
:102E5000FA21890012F00AF8FA239B00C0182860B2
:102E6000200070BD340E002070B50500FFF70BFE8A
:102E700001002800FFF7DCFF041E04D0010000223F
:102E80002800FFF755FD200070BD70B50500FFF765
:102E900036FE01002800FFF7CBFF041E04D001001E
:102EA00000222800FFF71EFD200070BDF7B50400CA
:102EB00015001800002905D12269E389168AB3425A
:102EC00006D30A2100222000FFF70CFD0E211CE092
:102ED000A789AF42F5D18342F3D108980568288AC3
:102EE0001F18B742EDDCA68AB042EAD10090280054
:102EF00007F01AFE0028E4D1E3892A8A20009B18F3
:102F0000E381FFF7C2FF011EDCD10800FEBD70B5F2
:102F10000500FFF727FE01002800FFF789FF041EC8
:102F200005D0002301001A002800FFF7FAFB20005B
:102F300070BD70B50500FFF727FE01002800FFF700
:102F400077FF041E05D0002301001A002800FFF7B8
:102F5000C4FB200070BD70B50500FFF727FE01001F
:102F60002800FFF765FF041E05D0002301001A00AA
:102F70002800FFF78BFB200070BDF0B5160087B06E
:102F80001023002205000C0001A8316805F0F9FBB0
:102F90000700306807F087FC002333609F421ED192
:102FA0002B8A002B1BD0002C0FD12B692200009301
:102FB00021006B462800FFF769FB00280BD12C612C
:102FC0002800FFF7C8FF041E06D0002321001A00C6
:102FD0002800FFF75BFB0E24200007B0F0BD0A2499
:102FE000F3E770B50500FFF7FBFD01002800FFF7D0
:102FF0001FFF041E05D0002301001A002800FFF760
:1030000021FB200070BD70B50500FFF707FE010031
:103010002800FFF70DFF041E05D0002381B21A001F
:103020002800FFF7EAFA200070BDF0B50400002088
:10303000236985B00E001700834214D001000822D6
:1030400002A812F051FAA38902AA13802369390059
:10305000019330002589FFF7A3FA6369010002AAF2
:103060002800019CA04705B0F0BD10B500220D213D
:10307000FFF7DBFF10BD10B5FFF7D7FF10BD10B590
:103080000400FFF755FC220023002D322C33127868
:103090001B789A4203D22089002105F0C9FE10BD99
:1030A000F7B50500081E0AD12E002F002C002D3682
:1030B0002C3731783F780C348F4207D80A20010032
:1030C00000222800FFF7DBFF0E2023E0C900641870
:1030D00021889142F2D161889942EFD1EB8D089A13
:1030E000009312680300606807F01EFD0028E5D118
:1030F000EA8D63889B1862689BB2128A63809A4249
:1031000003D860803378013333702800FFF7ACFEBA
:103110000028D4D1FEBD030010B5C2899989008969
:10312000002A02D105F07DFD10BD05F098FDFBE7FA
:1031300070B50500FFF7EFFF01002800FFF778FEEC
:10314000041E05D0002301001A002800FFF782FBAF
:10315000200070BDF7B513681700C2681E8A009280
:10316000019300226B460D000400FFF773FB019BE7
:1031700005433B600DD1208905F0C5FB002808D030
:103180000138864207DA2B002A000E212000FFF7C3
:1031900061FB0E2007E0E3892000F618E681FFF7C7
:1031A000C7FF0028F5D1FEBD10B5002905D00023CA
:1031B0001A00FFF7B6FA0E200BE0028C438C9A42FD
:1031C00003D10B000A000E21F3E7FFF7A0FE002851
:1031D000F1D110BD10B5002905D000231A00FFF76A
:1031E0007CFA0E200BE08289C3899A4203D10B003E
:1031F0000A000E21F3E7FFF79CFE0028F1D110BD75
:1032000010B5002905D000231A00FFF73FFA0E2061
:103210000BE08289054B9A4203D10B000A000E2174
:10322000F3E7FFF798FE0028F1D110BDFFFF000083
:1032300070B50500068A002086B00C0086421DD1BC
:103240000B88AA899A4205D2AB814B68042B0BD01C
:10325000062B15D000226B4611002800FFF716FA46
:1032600000280BD00E2009E0886807F084F9288236
:10327000A068023007F07FF96882300006B070BDA8
:10328000886807F078F96B461880A368981C07F0E7
:1032900072F96B46A16858800431022201A805F03A
:1032A0005BFAD7E730B585B001AD02AC2880A970D4
:1032B0002300002229000D48FFF76CFB2568002D34
:1032C00001D105B030BDAB7A094A9B009B5807215C
:1032D00000222800984723681B682360002B00D138
:1032E00064602800FFF798FBE8E7C046B52D0000B2
:1032F000546E010030B51D00002387B002AC208061
:1033000003910492059301226B4621000348FFF7C5
:1033100041FBE36800982B6007B030BDD52D00005D
:1033200010B50400002918D1C37ADB0708D4FFF7D1
:1033300023FBFA21890011F099FD094BC018606048
:1033400001F0A4FA00232360064B5A6814605C6005
:1033500001F0A0FA01F0E4FA10BDFFF75DFBFBE716
:10336000307500002C0E002010B5094C2368002B8E
:103370000BD0FFF701FBFA21890011F077FD2368DC
:10338000181AC343DB17184010BD0248FCE7C046BB
:10339000340E0020FFFFFF7F1FB501AC2080A1701D
:1033A00002AB012221000348FFF7F4FA029804B0AF
:1033B00010BDC046B52D000070B5C189028A01312B
:1033C000040089B2008905F014FB01002000FFF71A
:1033D0002FFD051E05D0002301001A002000FFF775
:1033E000C4F9280070BD00007FB5FFF7C5FAFA21C7
:1033F000890011F03BFD264B002203936B4602909F
:1034000002A9244800920193FFF7C4FA039D009C8F
:10341000002C16D1FFF7A8FF00280DD101261E4B66
:1034200002001860010002AB1C48FFF7B3FA029CCF
:10343000002C1DD1FFF798FFA84200DD280004B042
:1034400070BDA37A164A9B009B58002B01D0200028
:10345000984720891321FEF703FC009B1B6800930B
:10346000002B01D16B4601932000FFF7D5FACEE780
:10347000A37A0C4A9B009A58E37A2000B343E37284
:10348000904701002000FFF74BFF2468D0E7C046BB
:10349000FFFFFF7F81250000340E002099250000EA
:1034A000586F0100A46E0100F7B507000E00141E4E
:1034B0000ED102F0FEFC0625041E10D000220300EF
:1034C000009231000B4805F037FF0335002806D184
:1034D00022003100380005F0C3FC00240500320052
:1034E000390028000023FEF70DFF200007F0DBF96C
:1034F0002800FEBDFFFF000010B50022FFF7D4FF3B
:1035000010BD10B50E21FFF7CDFE10BDF0B585B092
:1035100003900F001400FFF797FB0625061E29D025
:103520000E238372039B87810381002C0DD102F04F
:10353000C0FC041E1ED00022030000923900154872
:1035400005F0FAFE0335002814D122003900039853
:1035500005F0A7FC00240500A0420BD101F096F96C
:10356000039801F037FCA04201D05430078001F0ED
:1035700091F9002401233A0003992800FEF7C2FEC6
:1035800029003000FFF7CCFE200007F08CF928005E
:1035900005B0F0BDFFFF000010B50022FFF7B6FF39
:1035A00010BD000070B50E00FF211500FFF7F4FEFE
:1035B000041E0CD0837A064A9B009B58002B03D034
:1035C000691CFF31320098472000FFF725FA70BDD3
:1035D000546E010070B50D0000211600FFF7DCFEEF
:1035E000041E07D0330000222900FEF7E7FF200069
:1035F000FFF712FA70BD70B50C0086B00621FFF718
:10360000CBFE061E1BD02388C2890A259A4201D20E
:103610000025C3816A460434138001AA0BCC0BC277
:1036200030000ACC0AC229006B460022FFF79DF841
:103630002900014300D00E213000FFF771FE06B0D3
:1036400070BD70B50D000621FFF7A6FE041E18D050
:10365000002D07D0002329001A002000FFF785F86D
:103660000E210BE0C289038A9A4203D12B002A0063
:103670000E21F2E7FFF7A0FE011EF1D12000FFF7B7
:103680004FFE70BD70B50E0086B00221FFF784FEBC
:10369000051E1ED07388028C0A249A420CD26946F9
:1036A000328803840A8002004B800C3201AB13CABB
:1036B00013C3002403CA03C321006B460022280061
:1036C000FEF7C0FF2100014300D00E212800FFF7C4
:1036D00027FE06B070BD000070B50D000221FFF797
:1036E0005BFE041E18D0002D07D0002329001A000D
:1036F0002000FEF7A7FF0E210BE0028C074B9A4239
:1037000003D12B002A000E21F2E7FFF76AFC011E0D
:10371000F1D12000FFF704FE70BDC046FFFF00009E
:1037200037B50D0001AB04220649FFF7E3FD041E87
:1037300007D0019B29005B68984701002000FFF734
:10374000EFFD37BD386F010037B50D0001AB042226
:103750000649FFF7CFFD041E07D0019B29005B68D7
:10376000984701002000FFF7DBFD37BD186F01000F
:1037700070B50E0086B00121FFF70EFE051E21D0A8
:103780007268022A02D00A24102A0ED1B16801A858
:1037900004F0E2FF041E17D17388AA899A4213D25B
:1037A00069463288AB810A804B80A1B26B46002209
:1037B0002800FEF722FF2100014300D00E2128003F
:1037C000FFF7AEFD06B070BD0A24EEE770B50D0040
:1037D0000121FFF7E1FD041E18D0002D07D00023C2
:1037E0001A00A9B22000FEF708FF0E210BE0828923
:1037F000074B9A4203D12B002A000E21F2E7FFF774
:1038000002FC011EF1D12000FFF78AFD70BDC04609
:10381000FFFF000073B50D00160001AB032207493E
:10382000FFF768FD041E08D0019B29005B68320089
:10383000984701002000FFF773FD73BD006F010082
:1038400070B50D0009211600FFF7A6FD041E07D074
:1038500029003200FFF77EFC01002000FFF760FD29
:1038600070BD70B50D000A211600FFF795FD041E0E
:1038700007D0330000222900FFF70BF82000FFF7E4
:10388000CBF870BD10B50B21FFF786FD041E06D0E6
:1038900000221100FFF7C9FB2000FFF7BDF810BDA3
:1038A000F0B587B0039116001F00022205AB09494D
:1038B000FFF720FD041E0BD00C9B03990093059B82
:1038C00032005D683B00A84701002000FFF728FD9B
:1038D00007B0F0BDF06E010037B50D0001AB02225C
:1038E0000649FFF707FD041E07D0019B29005B680E
:1038F000984701002000FFF713FD37BDE06E01007F
:1039000010B50E21FFF748FD041E11D081890089F2
:1039100000F0E4FC002808D10E30A289218901239F
:10392000FEF7F0FC208900F0AFFC2000FFF774F8F0
:1039300010BD10B5FF21FFF7B5FC10BD07B5002283
:10394000054B04211A605B60044B38320093044835
:10395000044B07F0B5FA0EBD2C0E0020906E01004E
:10396000100E0020300D0020084B10B51A88084BAF
:10397000196800239A4203DC01235B42180010BD42
:10398000DC000C598442F9D00133F3E7680E0020C3
:10399000700E0020074B10B51A6800239A4203DC12
:1039A00001235B42180010BD9C00045B8C42F9D0DF
:1039B0000133F3E7600E002070B5059C049B60683E
:1039C0001D6804F015FF81B2280007F0BCF9010062
:1039D0001120002903D0606804F0E6FE002070BDCD
:1039E00070B5049E04213068059D07F0ACF9041EF3
:1039F00002D11124200070BDA98806F0A1FDE9883C
:103A0000A01C06F09DFD2B680024586804F09DFE64
:103A10000500A042EED00221306807F094F9A042E0
:103A2000E7D0290006F08CFDE4E7000070B5002522
:103A3000054C206811F024FD2560044C206811F02D
:103A40001FFD256070BDC0463C0E0020700E00209A
:103A50000200C006C00F930601D502231843704729
:103A600070B5049E0C0030680321059D07F06BF9CA
:103A7000002801D1112070BD012302212A8A1340A0
:103A80000A4200D00B4304210A4200D00B43082114
:103A90000A4200D00B4310210A4200D00B432021E0
:103AA0000A4200D00B4340210A4200D00B43C02100
:103AB00049000A4201D08022134301340370A1B2AD
:103AC000013006F03DFD2868346804F091FE81B2B3
:103AD000200007F038F9011ECCD0286804F064FEFD
:103AE0000020C8E700220B7810B55CB294420ADAD5
:103AF000DC070AD49C0706D50088904203D11D320A
:103B00007F2003400B70100010BD1B22F8E7F0B5BA
:103B100085B001901878029117001C000A9E0E25AE
:103B2000032834D811F08EF902360236002A1FD14C
:103B300033680092636063680B9D1B8A22000393C5
:103B400002990C9B0198A847051E1DD16168039A34
:103B50000B8A9B1ADB1B16D4009A002A17D09BB243
:103B60003A00306806F00EFF606806F09CFE0EE03A
:103B70000021080006F080FE11256060002806D0B4
:103B800001230093D7E70725009B002BECD12800E9
:103B900005B0F0BD33680B9D636022000C9B029959
:103BA0000198A847636805003360F0E7023A70B5F2
:103BB000544254411E0088B00D9D05ABAA681C708C
:103BC0009D6002926A6801920C9A00923200FFF79F
:103BD0009EFF08B070BD023A70B5544254411D00BA
:103BE00088B00D9E05ABF26802341C709E60029294
:103BF000B26801920C9A00922A00FFF788FF08B081
:103C000070BD10B5FEF714F8002801D0002010BDDB
:103C1000FEF716F80028F9D1FEF71AF80028F5D1BA
:103C200001F008F943425841C0B2F0E7F0B5002670
:103C300093B008900D000992059600F027FE0898B1
:103C400001F0C8F80690B04205D100F023FE0E2422
:103C5000200013B0F0BD189B0E241F6806AB1E8514
:103C60006B1E9BB207939D424DD3069B0799DD6C5B
:103C70002800FFF78FFE431C45D080002D18002D33
:103C800041D0099BAE78022B08D00221380007F002
:103C90005AF8002830D10596112434E0398A0229D7
:103CA00059D1380007F077F8006806F064FC04008A
:103CB000EB7807009C4351D1AB780596834222D024
:103CC000C3B2AB700593069B58331B785B071AD5BC
:103CD0000699072207310EA811F0EAFB2C21079A5A
:103CE00006AB1A850122FFB25F855B181B789343F0
:103CF00006AA5218137006E003230024A97819407D
:103D000006F01EFC059600F0C5FD002CA0D1059B19
:103D100073409B070FD00221012233000598134006
:103D20000840314001910599029011400091089896
:103D30000799FEF705FB0EA90B89002B00D187E739
:103D40004B89002B0DD10BA804F06AFC0BA804F0E2
:103D500061FC04007CE705960D24D4E70596062453
:103D6000D1E7080004F050FCF3E70000F0B5A94BE0
:103D70009BB00F00A8490792A84A1B880D881268BB
:103D80000393EB00D31800220292013A9446029C5E
:103D9000027806006419002A08D10C800692069B5E
:103DA000029A934200DA2CE1002004E1039A1030D9
:103DB000A24200DCECE000229A806246DA80029A9D
:103DC0001E60013202920833E1E7944B1E68039BA8
:103DD000DB00F31804939B88002B4AD1049B1D68D9
:103DE000AC68002C02D02068002838D12B785A1EED
:103DF000012A4AD86A68002A47D08948022B00D095
:103E000088480A2406ABE418874B019500930022EA
:103E10002300012105F00AFA002800D0C8E0002F95
:103E200007D001230BA8037023880799838085603E
:103E3000B8470024AB68A3423CD1EC68002C00D00A
:103E40009CE00A2306AA9B181B88049A938005F01D
:103E50001FFA049BD880059B0133059309E0FFF707
:103E600083FD431C05D0C000301883880434002B28
:103E7000B9D1039B01330393674B039A1B889A4282
:103E8000A3DB059B002B00D0BEE0032093E0FFF7EF
:103E90006BFD624AC30010680121C018634B01909A
:103EA0000093002215AB624805F0C0F904340028E5
:103EB00000D07DE0AB6818590028E8D1BDE7636801
:103EC000002BE2D0208AFFF7C3FD00285AD1594BBE
:103ED00001940093002209AB0121574805F0A6F98F
:103EE000002865D10C22238A9907C90F134201D0FB
:103EF0000A3A11439A0501D5042211435A0501D506
:103F0000082211431A0501D510221143DA0401D504
:103F1000202211439A0401D5402211435B0401D5AC
:103F2000802319430E2606ABF618444BA27C00935F
:103F300001943300206805F079F9002838D16369CD
:103F4000002B01D032881A80002F0ED0022310A837
:103F5000037009AB1B8806AA83800E239B181B885D
:103F60000799C380C5608460B847208AFFF770FD59
:103F7000002812D1E668002E3FD118342368002BA8
:103F80009DD15EE72E4A2F4913680988994201DACC
:103F9000062010E00133136099E700222A4B0192BA
:103FA000009303210AAB294805F040F90028E1D02D
:103FB000012800D15DE71BB0F0BDB368002B00D134
:103FC00063E7737931799C46214B06AA009312234B
:103FD00001969B18624605F029F90028E8D1002FC8
:103FE0000AD0032315A8037006AB5B8A0799838068
:103FF0000561C4608660B847103630680028DCD19F
:10400000BBE70023059336E7059A069B9446634475
:104010000693C4E6B40F0020680E0020700E002046
:10402000EC020020E8020020B9390000E13900006C
:10403000F0020020613A0000F4020020AD3B0000D5
:10404000600E0020B20F00202D3C0000F80200207E
:10405000D73B0000F0B5070087B000F017FC380030
:1040600000F0B8FE041E05D0036DC56C0593002357
:10407000C364036500F00EFC002C0DD03800FFF780
:1040800040FA002D08D02C000026059BB34205DC29
:1040900029000D4806F09AFF07B0F0BDA2789307FB
:1040A0000ED0012313409C46022300201A40218891
:1040B000634602900192009002223800FEF740F918
:1040C00001360434E1E7C046400E0020F0B587B069
:1040D0000422474905A811F0EBF900F0D7FBFFF7E0
:1040E00090FD0F24434E444F002856D0FFF79EFC0E
:1040F00006F0A0F8051E00D077E0404B1888002895
:1041000043D13F4B1888002806D0C00011F0AEF90B
:104110003C4B186000283FD000233B4A1380039398
:10412000039A3B683068934241DC11F0A9F90023FF
:1041300033603B60354B1968002921D02F4B8C0030
:10414000188810F01DFF324B81B20093314B2200D2
:104150001B68314806F0B4FE0B24039000281CD1E4
:104160002D4806F0F9FE2D4C2060002814D0039F46
:104170003E0030002A4A05A905F0B2F8061E23D1F8
:1041800000F088FB280007B0F0BD800011F06EF948
:10419000204B18600028B4D10624FFF747FC306894
:1041A00011F06EF90023250033603B60E8E7039BC4
:1041B0001C499B004A6818580968FFF7D7FD041E80
:1041C000EBD1039B0133AAE73369188AFFF740FC60
:1041D0000028CED02268BB00D31872890137013283
:1041E0001A800022D8709A70C3E70400D5E7C04651
:1041F000946F01006C0E0020640E0020B20F0020AE
:10420000B40F0020700E0020680E0020600E002009
:10421000986F01003C0E0020400E00205C0E002034
:10422000FFFF0000FC020020044B01201B68002B54
:1042300003D0034BD888431E98417047600E00207E
:10424000400E002070B50D4D04002B68002B11DDD1
:104250000B4806F081FE06232060002808D02B685A
:104260009A00084B196811F023F92B68636000234A
:10427000180070BD002303604360F9E7600E002062
:10428000400E00205C0E002070B5060000F0FEFA23
:10429000300000F09FFD0400051E10D00022006DCC
:1042A000904201DC00250AE0E16C9300CB1899787C
:1042B0004DB2002D10DA7F221D881140997000F058
:1042C000E9FA0720002C06D00238002D03D029007F
:1042D0003000FFF761F970BD0132E1E7F0B5234B23
:1042E00087B01F68019038000E00FFF753FB0524CC
:1042F000431C35D083000093FB18DB789B072FD538
:1043000000F0C4FA019800F065FD030054331F88E3
:10431000B7421CD1002404221C8004331B781340B4
:10432000A34220D0C26C009B944663449D786BB23C
:10433000A34219DBC11D072202A811F0B9F802AB94
:104340005D8101251F811B7B02AAAB43137300F023
:10435000A1FA002C04D1002D02D002A804F054F9D7
:10436000200007B0F0BD1C002500F0E75C0E002027
:10437000F0B5002585B01F4B1B68AB4201DC05B0D2
:10438000F0BD1D4B1868AB001B5A19000193FFF7D5
:1043900001FB431C2BD0830003930023029300F006
:1043A00075FA029800F032FD041E13D0C36C039A14
:1043B000543099180231FFF795FB0700A68800F0EA
:1043C00069FA002C13D01B2F07D01D2F0AD0029B97
:1043D0000133E3E70700094EF1E701993000FFF7E9
:1043E0008BF8F4E701993000FFF7D6F8EFE70135D5
:1043F000C1E7C046600E00205C0E0020FFFF0000F9
:104400007FB5040000F042FA200000F0E3FC072230
:10441000C11D0500684611F04BF8002401262B6DE4
:10442000A34202DC00F036FA7FBDEA6CA300D31889
:10443000002B0CD09A78002A09D069461B88684660
:104440000B810B7B4A81B3430B7304F0DDF801341D
:10445000E5E7F0B506008FB000F018FA300000F084
:10446000B9FC07ADC11D0722280011F021F8002377
:104470002B81AB7200F00EFA0AAC2100280004F088
:10448000BCF8002851D100F001FA300000F0A2FC85
:10449000C36C0700059318002189FFF77BFA431CC2
:1044A0001AD1002700F0F6F9A27A93070CD0022364
:1044B00001201340218902930023024000920193BE
:1044C00003223000FDF73CFF1B2F1BD01D2F27D0F0
:1044D000AB7A0133AB72CFE7059B810059180029F5
:1044E000DFD00120A37A8B70227B0242D9D08022B8
:1044F0003800524213438B7054300231FFF7F2FA06
:104500000700CFE721893000FEF7F6FF0028DFD152
:104510000122237B20009343237304F075F8D7E72F
:1045200021893000FFF738F8D2E70FB0F0BD000066
:10453000F8B5050000F0AAF9FFF763FB0F27002884
:1045400011D00B4C0B4E23683068591C890011F0B8
:1045500067F9093F002806D00027236830609A00D9
:1045600001331550236000F095F93800F8BDC046BE
:10457000640E00206C0E002000233022F0B51900DC
:104580001D0094460278ACB2002A0ED1234849009F
:10459000058864190480224804881B190380214B74
:1045A000188809181980100037E0013A012A33D819
:1045B0004268002A30D0826801339BB2002A04D0BE
:1045C00080CA5C1CA4B2002F08D1C268002A02D0A5
:1045D0001468002C04D101351030D3E72300EFE735
:1045E0005468002C18D06646148A34420AD102332B
:1045F000D4689BB2002C03D026682700002E05D17A
:104600001832E5E7013189B20333F1E7BF680133BE
:104610009BB21034002FEFD10320F0BDB40F002067
:10462000B00F0020B20F00200020024B1860024B98
:1046300018607047600E00205C0E002013B5040067
:10464000E06B002818D04368E363002B02D12300FD
:104650003C3323641038019001A9200000F0B0FD24
:104660000128EDD1019BE26B19005A611031002A3B
:1046700001D114332364E16316BD000010B5064B6D
:1046800001001B780548022B02D0FCF781F910BD10
:1046900005F03CFFFBE7C046740E0020E40F00204D
:1046A00010B5034B0349186807F03EFC10BDC04627
:1046B000C80E0020A00E002010B5046901000348B8
:1046C00006F084FC200001F03BFA10BDCC0E002067
:1046D00010B5040000F063FC064B22001968064880
:1046E00001F0A0FC002803D0200006F0DCF80B202D
:1046F00010BDC046C80E0020C40F002010B5FFF743
:1047000037FE10BD70B506000C4D00202C68FCF77C
:1047100033FB2B689C42F7D1094B5A6899680A43CE
:1047200008D0FA215D6920438900751B10F09EFBBB
:10473000C54202D53000FFF7A1FF70BD380500204B
:10474000E40F0020034B10B5984201D0FFF7DAFFC9
:1047500010BDC046FFFFFF7F012370B50B4D2B70CE
:1047600001F076FD4342434104005B0064202B705E
:10477000FFF7C8FF002C07D101F020FC044B040018
:104780001B69002B00D09847200070BDE00F00206F
:10479000FC0200200022134B10B51A7007F080F9BC
:1047A000114801F023FC002809D100F041FA0F4B19
:1047B0000F4C984206D02168FDF799FAF5E706F00C
:1047C00072F8EDE701F036FB0A4BDB68002B03D0F3
:1047D0002068002800D0984700232360FFF7BCFF23
:1047E00010BDC046E00F0020C40F0020FFFF0000F6
:1047F000C00F0020FC02002010B5FFF7CBFF10BD5A
:1048000010B5114B1B78002B16D0022B17D1FEF7D9
:10481000EBFDFFF797FFFDF75FFBFFF793FF02F05C
:1048200017F9FFF78FFF03F06DFBFFF78BFF00F029
:1048300051FBFFF787FF10BDFFF7ACFFFBE7034914
:104840000320FCF749F9C046E00F00209A6A0100F6
:10485000044B054A1B8810681BB2C01A43425841DA
:104860007047C0465C040020BC0F002010B5012139
:10487000014807F075FA10BDB80F002010B50248C6
:1048800007F09EFA10BDC046B80F002010B5FFF724
:10489000EDFF10BD10B5FFF7F1FF10BD10B50448D6
:1048A00001F0A4FB002800D110BD01F06BF9F6E780
:1048B000C40F002010B5FFF7F1FF10BD10B5FFF7D2
:1048C000D5FF00F0B7FA0423002808D002002832F0
:1048D00012781A420BD0FFF7B1FE002804D100F085
:1048E000A9FA0400002C04D1FFF7C8FF10BD00682E
:1048F000EAE72000FFF7A2FE0028F5D12468F1E7DF
:10490000024B18780238434258417047740E002019
:10491000024B18780238434258417047E00F00209C
:1049200010B50020FFF7AAFE10BD000070B505000D
:104930000A4806F011FB041E03D1280007F084F892
:1049400070BD002302000360054907F067FB054BBB
:1049500025612100186807F0E7FAF1E7CC0E002086
:10496000B9460000C80E002010B5044B0449186079
:10497000044B186807F0D8FA10BDC046C00F0020DD
:10498000780E0020C80E0020C02310B5DB00C01830
:10499000FFF7EAFF10BD000070B5FFF767FF164B89
:1049A0001C78012C23D065B2002D05D0022C1AD022
:1049B00012490320FCF790F802221A70FFF75EFFFD
:1049C0000F4B104A1B8810491BB2136009682B005B
:1049D0000E4A0F4805F086FDFFF778FB041E04D150
:1049E000FFF7BAFE01E0FFF749FF200070BDFFF7B7
:1049F00045FF0F24F9E7C046740E00209A6A0100B3
:104A00005C040020BC0F0020C80E002001480000FC
:104A1000E40F002010B5FFF7BFFF002803D00249C4
:104A20000320FCF759F810BD9A6A010010B506F092
:104A3000C3FF002010BD000073B5364B1422009355
:104A40000A21354B354806F03BFA041E03D03449A1
:104A50000320FCF741F8334B334D1860334B28608B
:104A600018702A002800324907F0D8FA2C61314D1D
:104A700031492A0028002C6007F0D0FA2C612F4D14
:104A80002F492A0028002C6007F0C8FA2D4E2E4925
:104A9000320030002C61346007F0C0FA346100F05D
:104AA0001FFC00F061FA0028D1D101F0E1FA0028E2
:104AB000CDD101F007FE0028C9D103F04BFF00283B
:104AC000C5D105F0E7FB0028C1D1FDF727FD00287F
:104AD000BDD1FEF733FF0028B9D1FFF7A5FD041EB5
:104AE000B5D101F0C9FC22001849194801F070FA4B
:104AF000184B194A21001C601848230006F010FFCB
:104B000005F0DCFD164B186005F0D8FD290007F014
:104B10000BFA73BDAF6F0100E80E0020CC0E002031
:104B20009A6A0100C00F0020B40E0020740E00200D
:104B3000FD460000780E0020F94700008C0E002092
:104B4000A1460000A00E0020154A0000B548000054
:104B5000C40F0020B80F0020D14600009D51000076
:104B6000C80E002010B50A7844780123944201D180
:104B700000234860180010BDF8B504000D001600B1
:104B80001F00012D07D92378AB420DD23900200038
:104B9000B047002801D10020F8BD2378DA43013363
:104BA000AD18EDB2E418ECE70A20F5E737B50500DB
:104BB0001C006B461D7000230800019311006B461A
:104BC000054AFFF7D9FF002803D1019B002B01D034
:104BD00023603EBD0520FCE7654B000010B50400D6
:104BE000FFF754FE200000F0F5F8041E04D000F09A
:104BF000E1F8200000F07CF8FFF74CFE0020844232
:104C000000D1073010BD70B504000D00FFF73EFE67
:104C1000200000F0DFF80724002805D02C1E03D068
:104C20000024283003782B70FFF734FE200070BD7D
:104C300010B5FFF72BFE00F0FDF8002804D08488A3
:104C4000FFF728FE200010BD004CF9E7FFFF000031
:104C5000002010B5064BDB88834207D0054BDB886C
:104C6000022B03D9FFF7E0FA431E984110BDC0465E
:104C700078100020B0120020C06A002800D17047D0
:104C800003898B42FBD001D80068F6E70020F6E7E5
:104C900070B5C46A00232200002A04D016890D8949
:104CA000AE420DD005D9002B06D10C60C1620020A8
:104CB00070BD13001268EFE71A680A601960F6E722
:104CC0000220F5E7036B10B58B4201D1002303638B
:104CD000C36A0A688B4205D1C262080001F0ECFB8E
:104CE00010BD030018688842FBD11A60F5E7000088
:104CF00010B5041E0CD0443005F0C7F8E16A002955
:104D000007D1E06B002808D12100094806F05EF9C0
:104D100010BD2000FFF7D6FFF0E74368E363002BE8
:104D200002D123003C332364103805F0BCFDE8E7D2
:104D30007810002070B505001D4806F00DF9041E1E
:104D400030D00021642210F0CFFB0023A580E36265
:104D5000280003F0EDFD011E24D02000FFF798FF8E
:104D600000281FD1280001F049FE011E1AD02000A2
:104D7000FFF78EFF002815D1280003F04DFA011E21
:104D800010D02000FFF784FF00280BD120004C300A
:104D9000FFF758FA002805D123003C33E063236471
:104DA000200070BD2000FFF7A3FF0024F8E7C046F5
:104DB00078100020064902680B68834202D10A601D
:104DC00070470B0019688142FBD11A60F8E7C046B2
:104DD00094100020044B1B68002B02D09A8882425A
:104DE000F9D118007047C0469410002010B5040097
:104DF0008088FFF7EFFF024B1A681C60226010BD2D
:104E00009410002010B5FFF7E5FF10BD0022054B00
:104E10001B68002B01D1180070478242FBD0013281
:104E20001B68F6E79410002010B5FFF7D3FF431E70
:104E3000984110BD014B18687047C046941000207F
:104E4000F7B5040080790D0001F0AFF8002228705A
:104E500001A900F065FF002803D01C490320FBF7DF
:104E60003BFE06220199681C10F022FB200006225E
:104E700017490F3010F00EFB0300280007220E30F8
:104E80002900002B01D021000E312E00E71D10F06B
:104E90000FFB153607223900E81D10F009FB072229
:104EA0003900300010F004FBE379022B02D0032B11
:104EB00009D0F7BD00232100EB7115310722300026
:104EC00010F0F6FAF5E70123F5E7C0469A6A01000B
:104ED000D36F0100F8B5FA27BF001F4D00202C68E2
:104EE000FBF74AFF2B689C42F7D1204339000FF0B3
:104EF000BDFF0600FFF7CAFC184B194D1C68002CBB
:104F000001D1184C0DE02300022228331B781342F4
:104F10001ED1236B002B11D0636B9B1B002B0ADC73
:104F2000A488FFF7B7FC0F4B9C4213D0132120003D
:104F3000FCF796FED1E79D4200DD1D002000310008
:104F4000443004F0EBF90028EADD854200DD05007D
:104F50002468D4E72800F8BD38050020941000200C
:104F6000FFFFFF7FFFFF000007B5084B642200939F
:104F70000121074B074805F0A3FF03000B20002B7E
:104F800002D11800044A13600EBDC046C26F010072
:104F900014100020781000209410002070477047F3
:104FA0000020704710B50021054805F04DFC002891
:104FB00003D003680433036010BD00F070FFFBE70B
:104FC000BC1100200323002806D0002904D0034B85
:104FD0001880034B19800023180070479E10002092
:104FE0009C100020064A10B513881818054B9842EB
:104FF00003DD0C20FFF7B8FC10BD1080FCE7C046B5
:105000009C100020FFFF0000F0B50C0015008BB0D5
:105010001F0010AB1B78049001214D48059306F04A
:105020009FFE21002A00049800F0DCF9041E0DD137
:10503000FA214848C90005F029FA002814D0133491
:10504000062800D0083C2000FFF78EFC424D28685F
:10505000002803D006F0F8FC00232B603C4806F043
:10506000AFFE20000BB0F0BD3B4D286805F036F9CF
:105070002B6821001A785B7801929E1C0293F3B290
:1050800006AE10223000039310F02EFA019B0E2B77
:1050900003D00F2B3BD01124D5E7039B042B01D861
:1050A0000C24D0E72D68E81C05F065FA029BB0815E
:1050B000033BDBB23200002B0CD0687921000028C2
:1050C00002D08021890041180691012B08D10023CC
:1050D000536008E02300002800D00C230693F6E775
:1050E00006355560013B9360002F23D10897079741
:1050F00006AB9B89049A9342D2D1002CA3D1119B79
:10510000002B02D0089B119A1370069C9EE7039B0C
:10511000052BC5D928688578043005F02CFA746011
:10512000B081B4602300002D02D080239B00EB18D7
:105130000693D9E7089B059A0193934201DD0C245D
:105140000892089A0799380010F0B2F9CFE7C046E4
:10515000E4110020E811002098100020002307B57A
:1051600001930093FFF750FF0EBD0000094B10B5EF
:105170001A88002A02D006F067FC10BD064A1060AB
:10518000180006F089FD041EF7DA10F045F96442B4
:105190000460F2E7E81100209810002010B50378B1
:1051A0000E3B012B09D8C378002B02D10379002BC9
:1051B00003D0FFF7DBFF002010BDFFF7B7FBFAE7D6
:1051C000F0B50B6885B00293040000230E000B605D
:1051D0000090283425780133AD081D400193029BCF
:1051E000002B54D02D4A1288002A09D02C4B2D4A6E
:1051F000198802A8002305F012FA071E03D1029BAA
:10520000336001251AE0009B29009888002200F0F5
:1052100003FD03AD02AB2880398A981D05F090F993
:105220000421380005F0ECFC00280AD106250422F0
:10523000237802989343237005F035FB280005B0CE
:10524000F0BD042105F0A7FD071EEFD029000422C0
:10525000006810F02DF902AB981D05F08CF93800AC
:1052600000F0F8FD3800FFF7E1FB051EDFD1042355
:105270002278019D13432370009B009A1B8F0133FA
:105280001387064B054A1B88013B1380A7E70421BF
:1052900022781D008A432270D0E7C0469C1000206F
:1052A0009E100020A54F0000C26B10B50123002AFC
:1052B00002D1FFF785FF0300180010BD014B1860F5
:1052C0007047C046F4110020014B18707047C0466B
:1052D000F8110020014B18787047C046F8110020E3
:1052E00007B50021094806F04FFC0022084B094988
:1052F0001A60094B094A01938E235B0000931C3B03
:10530000FF3B074805F075F907BDC046E8110020CE
:10531000E4110020C8110020D96F0100BC11002049
:10532000A010002070B50C0005000188200005F0D9
:1053300007F96988A01C05F003F9A988201D05F06C
:10534000FFF8E988A01D05F0FBF820002989083046
:1053500005F0F6F8200069890A3005F0F1F8200020
:10536000A9890C3005F0ECF8002070BDF8B50700F5
:1053700003200C00160006F047FB0500390005F07D
:10538000DFF8AC70002C04D0E81C2200310010F0D3
:105390008FF82800E11C00F06DFD280006F0E4FA0B
:1053A000002802D0072801D01120F8BD1420FCE706
:1053B00070B506000D0014001220002E02D1002945
:1053C00002D070BD1F29FCD820220021200010F03F
:1053D0008BF82570601C2A00310010F069F800205D
:1053E000EFE7000070B50D4B04001B780E001500B0
:1053F000012B0BD01620002B0ED00538022B0BD121
:10540000320029002000FFF7B1FF05E0FFF720FA86
:1054100003001620002BF3D170BDC046E00F002022
:1054200070B50D000389C18804008B4232D38378A4
:10543000032B2FD8C378012B2CD80379032B29D821
:105440000278042A26D84378002B23D007208343F0
:1054500020D1012A05D00B00104A203B9BB2934279
:1054600018D8280005F06CF82189A81C05F068F808
:10547000210023780A312B71A378E81D6B71E37842
:105480000622AB7110F014F8002063786B73237957
:10549000AB7370BD01204042FBE7C046E03F000017
:1054A00010B5FFF785FF10BD70B504000B001000AC
:1054B000220005F051F870BD70B504000B0010001B
:1054C000220005F049F870BD70B50D001400010010
:1054D000100005F035F8A57070BD70B504000B0024
:1054E0001000220005F038F870BD08707047107089
:1054F0005170704710B5FFF715FF10BD70B50C0067
:1055000005000188200005F01BF8A91CA01C102232
:105510000FF0CEFF70BD0B0010B50100180005F0B4
:105520000FF810BD70B50C0005000188200005F0D3
:1055300007F86988A01C05F003F8A988201D04F06D
:10554000FFFFE988A01D04F0FBFF20002989083037
:1055500004F0F6FF200069890A3004F0F1FF200012
:10556000A9890C3004F0ECFF70BD70B50C0005008B
:105570000188200004F0E4FFAB78A37070BD70B523
:105580000C0005000188200004F0DAFFAA68EB682F
:10559000A01C04F0E1FF200069880A3004F0D0FF6D
:1055A00029002000103110220C300FF081FF70BD57
:1055B000037870B505000C001220012B12D80B7077
:1055C0000622691C601C0FF073FF2900102217319E
:1055D000E01D0FF06DFF2000E91D173010220FF0C5
:1055E00067FF002070BD1223012801D80023087036
:1055F0001800704710B5431E0C0006499BB21222DA
:105600008B4204D80100200004F09AFF0022100011
:1056100010BDC046B7A1000070B51C0015001223D4
:10562000012908D8631C21700622010018000FF020
:105630003FFF0023E571180070BD13B50C00062272
:10564000010068460FF034FF0622694620000FF083
:105650002FFF002016BD0B0010B50100180004F04C
:105660006FFF002010BD000070B50C20022A0CDD79
:1056700000208C78094B1D001E780835A64205D005
:1056800001302B000F28F6D1002070BD181EFCD071
:10569000023A02315B6820009847F6E71C7001006F
:1056A00000207047F0B58BB00F00150000211822C4
:1056B00004A80FF019FF0C20112D19DD7C782301AF
:1056C0000233AB4214D1631C5B000193E3000293ED
:1056D0000923634300930F2363430393009BBD1C83
:1056E000FE1802235B42DF1B7B199C4202DC002078
:1056F0000BB0F0BD2B7804AA13702B5D9370019B47
:10570000009A991A04AB89190622D81C0FF0D0FE12
:105710001120029B04AAEB5CB11C137404AB06229B
:10572000C0180FF0C5FE039B04AAEB5C1000537277
:105730000135FBF7F9FF0636D6E7F0B587B00D0067
:1057400014000021182268460FF0CEFE0C200B2C0E
:1057500032DD6E780238731E182B2DD800220223FA
:10576000B2422BDB0C209C4226D10722002104A848
:105770000FF0BAFE002702246A462B5DA11C1370AD
:105780002B195B78691893706B460622D81C0FF0B2
:105790008FFE6A462B191B7A093453702A1903921B
:1057A0006A461C192B5D6846013753720134FBF7BA
:1057B000BBFFB742E0D1002007B0F0BD0833E95C81
:1057C0005B1802339C4201DB0132C9E70C20F3E78E
:1057D000F8B50C20022A0ADD8D78AD00954206DA74
:1057E0000C004D19A54203D1FFF768F80020F8BD61
:1057F000E01C04F0C0FE0700601D04F0BCFE061EA5
:1058000011D0FFF743F83800FFF7E4FA002808D07A
:10581000038FB34209D20C20FFF7A6F83000FFF740
:10582000E1FBFFF737F80434DCE79B1B0387F5E760
:1058300010B50C20002A03DD0878FFF7A5F800203A
:1058400010BD30B50C2085B00C000B2A11DD0B7893
:1058500001AD2B704B78881C6B7004F08CFE211D01
:105860006880082202A80FF023FE2800FCF7A4F8A5
:10587000002005B030BD13B50C000C20052A12DD48
:105880006A460B78881C13704B78537004F073FED3
:105890006B466A4658802379684613716379537161
:1058A000FCF7B1F8002016BD30B50C2385B00D0013
:1058B0000A2A30DD0B7801AC481C237004F05BFE33
:1058C0006080E81C04F057FEA080681D04F053FEC1
:1058D000E080E81D04F04FFE20812800093004F02C
:1058E0004AFEA18860810A23052914D9C825E288C7
:1058F0002D01AA420FD891420DD8F4222189FF32FE
:10590000914208D80A38054A80B2904203D8200054
:10591000FCF764FB0023180005B030BD760C0000D6
:105920001FB50C200C00824216DD6A460B78481C1D
:10593000137304F020FE6B461881E01C04F02BFE6C
:105940000090019120000B3004F015FE6B46588149
:10595000684602F0AFF9002004B010BD30B50D006C
:1059600085B00C21092A2DDD2B7801AC23706B78D2
:10597000A81C637004F0FFFD6080281D04F0FBFD8F
:10598000A080A81D04F0F7FDE0802800083004F096
:10599000F2FD63782081002B10D1A3880B4A063BCF
:1059A0009BB20A2193420DD8F423E288FF339A4236
:1059B00008D80A38064A80B2904203D82000FCF783
:1059C0000FFA0021080005B030BDC0467A0C000077
:1059D000760C000070B5060088B00C000C20122A6E
:1059E0004FDD0A2E01D11E2A4BDD20220021684600
:1059F0000FF07AFD6A462378657813705570002D94
:105A00003BD1A01C04F0B7FD6B466A465880237951
:105A1000A11D13716379537106226B4698180FF01C
:105A200047FD06220A2E2ED1132321006B440C3190
:105A300018000FF03DFD192321006B44062212319E
:105A400018000FF035FD0C3528000C30201804F03C
:105A500092FD6B46988128000E30201804F08BFDD3
:105A60006B46D88128001030201804F084FD6B4666
:105A70006A4664191882A37C937400216846FBF778
:105A80008BFE08B070BD13236B44290018000FF083
:105A90002BFD19236B440622290018000FF024FD6A
:105AA000D2E713B50C20022A0ADD8B7801ACC81CA2
:105AB000237004F060FD6080200002F0F4F8002004
:105AC00016BD37B50D000C20032A0CDD8B7801AC18
:105AD000C81C237004F04FFD6B7960802000637058
